{
	"contracts/simpleDEXProject/SimpleDEX.sol": {
		"SimpleDEX": {
			"abi": [
				{
					"inputs": [
						{
							"internalType": "address",
							"name": "_tokenA",
							"type": "address"
						},
						{
							"internalType": "address",
							"name": "_tokenB",
							"type": "address"
						}
					],
					"stateMutability": "nonpayable",
					"type": "constructor"
				},
				{
					"anonymous": false,
					"inputs": [
						{
							"indexed": true,
							"internalType": "address",
							"name": "provider",
							"type": "address"
						},
						{
							"indexed": false,
							"internalType": "uint256",
							"name": "amountA",
							"type": "uint256"
						},
						{
							"indexed": false,
							"internalType": "uint256",
							"name": "amountB",
							"type": "uint256"
						}
					],
					"name": "LiquidityAdded",
					"type": "event"
				},
				{
					"anonymous": false,
					"inputs": [
						{
							"indexed": true,
							"internalType": "address",
							"name": "provider",
							"type": "address"
						},
						{
							"indexed": false,
							"internalType": "uint256",
							"name": "amountA",
							"type": "uint256"
						},
						{
							"indexed": false,
							"internalType": "uint256",
							"name": "amountB",
							"type": "uint256"
						}
					],
					"name": "LiquidityRemoved",
					"type": "event"
				},
				{
					"anonymous": false,
					"inputs": [
						{
							"indexed": true,
							"internalType": "address",
							"name": "swapper",
							"type": "address"
						},
						{
							"indexed": true,
							"internalType": "address",
							"name": "fromToken",
							"type": "address"
						},
						{
							"indexed": true,
							"internalType": "address",
							"name": "toToken",
							"type": "address"
						},
						{
							"indexed": false,
							"internalType": "uint256",
							"name": "inputAmount",
							"type": "uint256"
						},
						{
							"indexed": false,
							"internalType": "uint256",
							"name": "outputAmount",
							"type": "uint256"
						}
					],
					"name": "TokensSwapped",
					"type": "event"
				},
				{
					"inputs": [
						{
							"internalType": "uint256",
							"name": "amountA",
							"type": "uint256"
						},
						{
							"internalType": "uint256",
							"name": "amountB",
							"type": "uint256"
						}
					],
					"name": "addLiquidity",
					"outputs": [],
					"stateMutability": "nonpayable",
					"type": "function"
				},
				{
					"inputs": [
						{
							"internalType": "address",
							"name": "_token",
							"type": "address"
						}
					],
					"name": "getPrice",
					"outputs": [
						{
							"internalType": "uint256",
							"name": "",
							"type": "uint256"
						}
					],
					"stateMutability": "view",
					"type": "function"
				},
				{
					"inputs": [],
					"name": "owner",
					"outputs": [
						{
							"internalType": "address",
							"name": "",
							"type": "address"
						}
					],
					"stateMutability": "view",
					"type": "function"
				},
				{
					"inputs": [
						{
							"internalType": "uint256",
							"name": "amountA",
							"type": "uint256"
						},
						{
							"internalType": "uint256",
							"name": "amountB",
							"type": "uint256"
						}
					],
					"name": "removeLiquidity",
					"outputs": [],
					"stateMutability": "nonpayable",
					"type": "function"
				},
				{
					"inputs": [],
					"name": "reserveA",
					"outputs": [
						{
							"internalType": "uint256",
							"name": "",
							"type": "uint256"
						}
					],
					"stateMutability": "view",
					"type": "function"
				},
				{
					"inputs": [],
					"name": "reserveB",
					"outputs": [
						{
							"internalType": "uint256",
							"name": "",
							"type": "uint256"
						}
					],
					"stateMutability": "view",
					"type": "function"
				},
				{
					"inputs": [
						{
							"internalType": "uint256",
							"name": "amountAIn",
							"type": "uint256"
						}
					],
					"name": "swapAforB",
					"outputs": [],
					"stateMutability": "nonpayable",
					"type": "function"
				},
				{
					"inputs": [
						{
							"internalType": "uint256",
							"name": "amountBIn",
							"type": "uint256"
						}
					],
					"name": "swapBforA",
					"outputs": [],
					"stateMutability": "nonpayable",
					"type": "function"
				},
				{
					"inputs": [],
					"name": "tokenA",
					"outputs": [
						{
							"internalType": "address",
							"name": "",
							"type": "address"
						}
					],
					"stateMutability": "view",
					"type": "function"
				},
				{
					"inputs": [],
					"name": "tokenB",
					"outputs": [
						{
							"internalType": "address",
							"name": "",
							"type": "address"
						}
					],
					"stateMutability": "view",
					"type": "function"
				}
			],
			"devdoc": {
				"kind": "dev",
				"methods": {},
				"version": 1
			},
			"evm": {
				"assembly": "    /* \"contracts/simpleDEXProject/SimpleDEX.sol\":790:5030  contract SimpleDEX {... */\n  mstore(0x40, 0x80)\n    /* \"contracts/simpleDEXProject/SimpleDEX.sol\":1399:1536  constructor(address _tokenA, address _tokenB) {... */\n  callvalue\n  dup1\n  iszero\n  tag_1\n  jumpi\n  0x00\n  dup1\n  revert\ntag_1:\n  pop\n  mload(0x40)\n  sub(codesize, bytecodeSize)\n  dup1\n  bytecodeSize\n  dup4\n  codecopy\n  dup2\n  dup2\n  add\n  0x40\n  mstore\n  dup2\n  add\n  swap1\n  tag_2\n  swap2\n  swap1\n  tag_3\n  jump\t// in\ntag_2:\n    /* \"contracts/simpleDEXProject/SimpleDEX.sol\":1465:1472  _tokenA */\n  dup2\n    /* \"contracts/simpleDEXProject/SimpleDEX.sol\":1456:1462  tokenA */\n  0x00\n  dup1\n    /* \"contracts/simpleDEXProject/SimpleDEX.sol\":1456:1472  tokenA = _tokenA */\n  0x0100\n  exp\n  dup2\n  sload\n  dup2\n  0xffffffffffffffffffffffffffffffffffffffff\n  mul\n  not\n  and\n  swap1\n  dup4\n  0xffffffffffffffffffffffffffffffffffffffff\n  and\n  mul\n  or\n  swap1\n  sstore\n  pop\n    /* \"contracts/simpleDEXProject/SimpleDEX.sol\":1492:1499  _tokenB */\n  dup1\n    /* \"contracts/simpleDEXProject/SimpleDEX.sol\":1483:1489  tokenB */\n  0x01\n  0x00\n    /* \"contracts/simpleDEXProject/SimpleDEX.sol\":1483:1499  tokenB = _tokenB */\n  0x0100\n  exp\n  dup2\n  sload\n  dup2\n  0xffffffffffffffffffffffffffffffffffffffff\n  mul\n  not\n  and\n  swap1\n  dup4\n  0xffffffffffffffffffffffffffffffffffffffff\n  and\n  mul\n  or\n  swap1\n  sstore\n  pop\n    /* \"contracts/simpleDEXProject/SimpleDEX.sol\":1518:1528  msg.sender */\n  caller\n    /* \"contracts/simpleDEXProject/SimpleDEX.sol\":1510:1515  owner */\n  0x04\n  0x00\n    /* \"contracts/simpleDEXProject/SimpleDEX.sol\":1510:1528  owner = msg.sender */\n  0x0100\n  exp\n  dup2\n  sload\n  dup2\n  0xffffffffffffffffffffffffffffffffffffffff\n  mul\n  not\n  and\n  swap1\n  dup4\n  0xffffffffffffffffffffffffffffffffffffffff\n  and\n  mul\n  or\n  swap1\n  sstore\n  pop\n    /* \"contracts/simpleDEXProject/SimpleDEX.sol\":1399:1536  constructor(address _tokenA, address _tokenB) {... */\n  pop\n  pop\n    /* \"contracts/simpleDEXProject/SimpleDEX.sol\":790:5030  contract SimpleDEX {... */\n  jump(tag_6)\n    /* \"#utility.yul\":88:205   */\ntag_8:\n    /* \"#utility.yul\":197:198   */\n  0x00\n    /* \"#utility.yul\":194:195   */\n  dup1\n    /* \"#utility.yul\":187:199   */\n  revert\n    /* \"#utility.yul\":334:460   */\ntag_10:\n    /* \"#utility.yul\":371:378   */\n  0x00\n    /* \"#utility.yul\":411:453   */\n  0xffffffffffffffffffffffffffffffffffffffff\n    /* \"#utility.yul\":404:409   */\n  dup3\n    /* \"#utility.yul\":400:454   */\n  and\n    /* \"#utility.yul\":389:454   */\n  swap1\n  pop\n    /* \"#utility.yul\":334:460   */\n  swap2\n  swap1\n  pop\n  jump\t// out\n    /* \"#utility.yul\":466:562   */\ntag_11:\n    /* \"#utility.yul\":503:510   */\n  0x00\n    /* \"#utility.yul\":532:556   */\n  tag_20\n    /* \"#utility.yul\":550:555   */\n  dup3\n    /* \"#utility.yul\":532:556   */\n  tag_10\n  jump\t// in\ntag_20:\n    /* \"#utility.yul\":521:556   */\n  swap1\n  pop\n    /* \"#utility.yul\":466:562   */\n  swap2\n  swap1\n  pop\n  jump\t// out\n    /* \"#utility.yul\":568:690   */\ntag_12:\n    /* \"#utility.yul\":641:665   */\n  tag_22\n    /* \"#utility.yul\":659:664   */\n  dup2\n    /* \"#utility.yul\":641:665   */\n  tag_11\n  jump\t// in\ntag_22:\n    /* \"#utility.yul\":634:639   */\n  dup2\n    /* \"#utility.yul\":631:666   */\n  eq\n    /* \"#utility.yul\":621:684   */\n  tag_23\n  jumpi\n    /* \"#utility.yul\":680:681   */\n  0x00\n    /* \"#utility.yul\":677:678   */\n  dup1\n    /* \"#utility.yul\":670:682   */\n  revert\n    /* \"#utility.yul\":621:684   */\ntag_23:\n    /* \"#utility.yul\":568:690   */\n  pop\n  jump\t// out\n    /* \"#utility.yul\":696:839   */\ntag_13:\n    /* \"#utility.yul\":753:758   */\n  0x00\n    /* \"#utility.yul\":784:790   */\n  dup2\n    /* \"#utility.yul\":778:791   */\n  mload\n    /* \"#utility.yul\":769:791   */\n  swap1\n  pop\n    /* \"#utility.yul\":800:833   */\n  tag_25\n    /* \"#utility.yul\":827:832   */\n  dup2\n    /* \"#utility.yul\":800:833   */\n  tag_12\n  jump\t// in\ntag_25:\n    /* \"#utility.yul\":696:839   */\n  swap3\n  swap2\n  pop\n  pop\n  jump\t// out\n    /* \"#utility.yul\":845:1352   */\ntag_3:\n    /* \"#utility.yul\":924:930   */\n  0x00\n    /* \"#utility.yul\":932:938   */\n  dup1\n    /* \"#utility.yul\":981:983   */\n  0x40\n    /* \"#utility.yul\":969:978   */\n  dup4\n    /* \"#utility.yul\":960:967   */\n  dup6\n    /* \"#utility.yul\":956:979   */\n  sub\n    /* \"#utility.yul\":952:984   */\n  slt\n    /* \"#utility.yul\":949:1068   */\n  iszero\n  tag_27\n  jumpi\n    /* \"#utility.yul\":987:1066   */\n  tag_28\n  tag_8\n  jump\t// in\ntag_28:\n    /* \"#utility.yul\":949:1068   */\ntag_27:\n    /* \"#utility.yul\":1107:1108   */\n  0x00\n    /* \"#utility.yul\":1132:1196   */\n  tag_29\n    /* \"#utility.yul\":1188:1195   */\n  dup6\n    /* \"#utility.yul\":1179:1185   */\n  dup3\n    /* \"#utility.yul\":1168:1177   */\n  dup7\n    /* \"#utility.yul\":1164:1186   */\n  add\n    /* \"#utility.yul\":1132:1196   */\n  tag_13\n  jump\t// in\ntag_29:\n    /* \"#utility.yul\":1122:1196   */\n  swap3\n  pop\n    /* \"#utility.yul\":1078:1206   */\n  pop\n    /* \"#utility.yul\":1245:1247   */\n  0x20\n    /* \"#utility.yul\":1271:1335   */\n  tag_30\n    /* \"#utility.yul\":1327:1334   */\n  dup6\n    /* \"#utility.yul\":1318:1324   */\n  dup3\n    /* \"#utility.yul\":1307:1316   */\n  dup7\n    /* \"#utility.yul\":1303:1325   */\n  add\n    /* \"#utility.yul\":1271:1335   */\n  tag_13\n  jump\t// in\ntag_30:\n    /* \"#utility.yul\":1261:1335   */\n  swap2\n  pop\n    /* \"#utility.yul\":1216:1345   */\n  pop\n    /* \"#utility.yul\":845:1352   */\n  swap3\n  pop\n  swap3\n  swap1\n  pop\n  jump\t// out\n    /* \"contracts/simpleDEXProject/SimpleDEX.sol\":790:5030  contract SimpleDEX {... */\ntag_6:\n  dataSize(sub_0)\n  dup1\n  dataOffset(sub_0)\n  0x00\n  codecopy\n  0x00\n  return\nstop\n\nsub_0: assembly {\n        /* \"contracts/simpleDEXProject/SimpleDEX.sol\":790:5030  contract SimpleDEX {... */\n      mstore(0x40, 0x80)\n      callvalue\n      dup1\n      iszero\n      tag_1\n      jumpi\n      0x00\n      dup1\n      revert\n    tag_1:\n      pop\n      jumpi(tag_2, lt(calldatasize, 0x04))\n      shr(0xe0, calldataload(0x00))\n      dup1\n      0x8da5cb5b\n      gt\n      tag_13\n      jumpi\n      dup1\n      0x8da5cb5b\n      eq\n      tag_8\n      jumpi\n      dup1\n      0x9cd441da\n      eq\n      tag_9\n      jumpi\n      dup1\n      0x9d7de6b3\n      eq\n      tag_10\n      jumpi\n      dup1\n      0xdc5fa6c5\n      eq\n      tag_11\n      jumpi\n      dup1\n      0xe4f1f70a\n      eq\n      tag_12\n      jumpi\n      jump(tag_2)\n    tag_13:\n      dup1\n      0x0fc63d10\n      eq\n      tag_3\n      jumpi\n      dup1\n      0x19e36f3b\n      eq\n      tag_4\n      jumpi\n      dup1\n      0x41976e09\n      eq\n      tag_5\n      jumpi\n      dup1\n      0x5f64b55b\n      eq\n      tag_6\n      jumpi\n      dup1\n      0x8014a7aa\n      eq\n      tag_7\n      jumpi\n    tag_2:\n      0x00\n      dup1\n      revert\n        /* \"contracts/simpleDEXProject/SimpleDEX.sol\":816:837  address public tokenA */\n    tag_3:\n      tag_14\n      tag_15\n      jump\t// in\n    tag_14:\n      mload(0x40)\n      tag_16\n      swap2\n      swap1\n      tag_17\n      jump\t// in\n    tag_16:\n      mload(0x40)\n      dup1\n      swap2\n      sub\n      swap1\n      return\n        /* \"contracts/simpleDEXProject/SimpleDEX.sol\":902:925  uint256 public reserveB */\n    tag_4:\n      tag_18\n      tag_19\n      jump\t// in\n    tag_18:\n      mload(0x40)\n      tag_20\n      swap2\n      swap1\n      tag_21\n      jump\t// in\n    tag_20:\n      mload(0x40)\n      dup1\n      swap2\n      sub\n      swap1\n      return\n        /* \"contracts/simpleDEXProject/SimpleDEX.sol\":4136:4458  function getPrice(address _token) external view returns (uint256) {... */\n    tag_5:\n      tag_22\n      0x04\n      dup1\n      calldatasize\n      sub\n      dup2\n      add\n      swap1\n      tag_23\n      swap2\n      swap1\n      tag_24\n      jump\t// in\n    tag_23:\n      tag_25\n      jump\t// in\n    tag_22:\n      mload(0x40)\n      tag_26\n      swap2\n      swap1\n      tag_21\n      jump\t// in\n    tag_26:\n      mload(0x40)\n      dup1\n      swap2\n      sub\n      swap1\n      return\n        /* \"contracts/simpleDEXProject/SimpleDEX.sol\":844:865  address public tokenB */\n    tag_6:\n      tag_27\n      tag_28\n      jump\t// in\n    tag_27:\n      mload(0x40)\n      tag_29\n      swap2\n      swap1\n      tag_17\n      jump\t// in\n    tag_29:\n      mload(0x40)\n      dup1\n      swap2\n      sub\n      swap1\n      return\n        /* \"contracts/simpleDEXProject/SimpleDEX.sol\":2828:3443  function swapBforA(uint256 amountBIn) external {... */\n    tag_7:\n      tag_30\n      0x04\n      dup1\n      calldatasize\n      sub\n      dup2\n      add\n      swap1\n      tag_31\n      swap2\n      swap1\n      tag_32\n      jump\t// in\n    tag_31:\n      tag_33\n      jump\t// in\n    tag_30:\n      stop\n        /* \"contracts/simpleDEXProject/SimpleDEX.sol\":932:952  address public owner */\n    tag_8:\n      tag_34\n      tag_35\n      jump\t// in\n    tag_34:\n      mload(0x40)\n      tag_36\n      swap2\n      swap1\n      tag_17\n      jump\t// in\n    tag_36:\n      mload(0x40)\n      dup1\n      swap2\n      sub\n      swap1\n      return\n        /* \"contracts/simpleDEXProject/SimpleDEX.sol\":1590:2091  function addLiquidity(uint256 amountA, uint256 amountB) external onlyOwner {... */\n    tag_9:\n      tag_37\n      0x04\n      dup1\n      calldatasize\n      sub\n      dup2\n      add\n      swap1\n      tag_38\n      swap2\n      swap1\n      tag_39\n      jump\t// in\n    tag_38:\n      tag_40\n      jump\t// in\n    tag_37:\n      stop\n        /* \"contracts/simpleDEXProject/SimpleDEX.sol\":3498:4054  function removeLiquidity(uint256 amountA, uint256 amountB) external onlyOwner {... */\n    tag_10:\n      tag_41\n      0x04\n      dup1\n      calldatasize\n      sub\n      dup2\n      add\n      swap1\n      tag_42\n      swap2\n      swap1\n      tag_39\n      jump\t// in\n    tag_42:\n      tag_43\n      jump\t// in\n    tag_41:\n      stop\n        /* \"contracts/simpleDEXProject/SimpleDEX.sol\":872:895  uint256 public reserveA */\n    tag_11:\n      tag_44\n      tag_45\n      jump\t// in\n    tag_44:\n      mload(0x40)\n      tag_46\n      swap2\n      swap1\n      tag_21\n      jump\t// in\n    tag_46:\n      mload(0x40)\n      dup1\n      swap2\n      sub\n      swap1\n      return\n        /* \"contracts/simpleDEXProject/SimpleDEX.sol\":2152:2767  function swapAforB(uint256 amountAIn) external {... */\n    tag_12:\n      tag_47\n      0x04\n      dup1\n      calldatasize\n      sub\n      dup2\n      add\n      swap1\n      tag_48\n      swap2\n      swap1\n      tag_32\n      jump\t// in\n    tag_48:\n      tag_49\n      jump\t// in\n    tag_47:\n      stop\n        /* \"contracts/simpleDEXProject/SimpleDEX.sol\":816:837  address public tokenA */\n    tag_15:\n      0x00\n      dup1\n      sload\n      swap1\n      0x0100\n      exp\n      swap1\n      div\n      0xffffffffffffffffffffffffffffffffffffffff\n      and\n      dup2\n      jump\t// out\n        /* \"contracts/simpleDEXProject/SimpleDEX.sol\":902:925  uint256 public reserveB */\n    tag_19:\n      sload(0x03)\n      dup2\n      jump\t// out\n        /* \"contracts/simpleDEXProject/SimpleDEX.sol\":4136:4458  function getPrice(address _token) external view returns (uint256) {... */\n    tag_25:\n        /* \"contracts/simpleDEXProject/SimpleDEX.sol\":4193:4200  uint256 */\n      0x00\n        /* \"contracts/simpleDEXProject/SimpleDEX.sol\":4227:4233  tokenA */\n      dup1\n      0x00\n      swap1\n      sload\n      swap1\n      0x0100\n      exp\n      swap1\n      div\n      0xffffffffffffffffffffffffffffffffffffffff\n      and\n        /* \"contracts/simpleDEXProject/SimpleDEX.sol\":4217:4233  _token == tokenA */\n      0xffffffffffffffffffffffffffffffffffffffff\n      and\n        /* \"contracts/simpleDEXProject/SimpleDEX.sol\":4217:4223  _token */\n      dup3\n        /* \"contracts/simpleDEXProject/SimpleDEX.sol\":4217:4233  _token == tokenA */\n      0xffffffffffffffffffffffffffffffffffffffff\n      and\n      sub\n        /* \"contracts/simpleDEXProject/SimpleDEX.sol\":4213:4451  if (_token == tokenA) {... */\n      tag_51\n      jumpi\n        /* \"contracts/simpleDEXProject/SimpleDEX.sol\":4277:4285  reserveA */\n      sload(0x02)\n        /* \"contracts/simpleDEXProject/SimpleDEX.sol\":4269:4273  1e18 */\n      0x0de0b6b3a7640000\n        /* \"contracts/simpleDEXProject/SimpleDEX.sol\":4258:4266  reserveB */\n      sload(0x03)\n        /* \"contracts/simpleDEXProject/SimpleDEX.sol\":4258:4273  reserveB * 1e18 */\n      tag_52\n      swap2\n      swap1\n      tag_53\n      jump\t// in\n    tag_52:\n        /* \"contracts/simpleDEXProject/SimpleDEX.sol\":4257:4285  (reserveB * 1e18) / reserveA */\n      tag_54\n      swap2\n      swap1\n      tag_55\n      jump\t// in\n    tag_54:\n        /* \"contracts/simpleDEXProject/SimpleDEX.sol\":4250:4285  return (reserveB * 1e18) / reserveA */\n      swap1\n      pop\n      jump(tag_50)\n        /* \"contracts/simpleDEXProject/SimpleDEX.sol\":4213:4451  if (_token == tokenA) {... */\n    tag_51:\n        /* \"contracts/simpleDEXProject/SimpleDEX.sol\":4317:4323  tokenB */\n      0x01\n      0x00\n      swap1\n      sload\n      swap1\n      0x0100\n      exp\n      swap1\n      div\n      0xffffffffffffffffffffffffffffffffffffffff\n      and\n        /* \"contracts/simpleDEXProject/SimpleDEX.sol\":4307:4323  _token == tokenB */\n      0xffffffffffffffffffffffffffffffffffffffff\n      and\n        /* \"contracts/simpleDEXProject/SimpleDEX.sol\":4307:4313  _token */\n      dup3\n        /* \"contracts/simpleDEXProject/SimpleDEX.sol\":4307:4323  _token == tokenB */\n      0xffffffffffffffffffffffffffffffffffffffff\n      and\n      sub\n        /* \"contracts/simpleDEXProject/SimpleDEX.sol\":4303:4451  if (_token == tokenB) {... */\n      tag_57\n      jumpi\n        /* \"contracts/simpleDEXProject/SimpleDEX.sol\":4367:4375  reserveB */\n      sload(0x03)\n        /* \"contracts/simpleDEXProject/SimpleDEX.sol\":4359:4363  1e18 */\n      0x0de0b6b3a7640000\n        /* \"contracts/simpleDEXProject/SimpleDEX.sol\":4348:4356  reserveA */\n      sload(0x02)\n        /* \"contracts/simpleDEXProject/SimpleDEX.sol\":4348:4363  reserveA * 1e18 */\n      tag_58\n      swap2\n      swap1\n      tag_53\n      jump\t// in\n    tag_58:\n        /* \"contracts/simpleDEXProject/SimpleDEX.sol\":4347:4375  (reserveA * 1e18) / reserveB */\n      tag_59\n      swap2\n      swap1\n      tag_55\n      jump\t// in\n    tag_59:\n        /* \"contracts/simpleDEXProject/SimpleDEX.sol\":4340:4375  return (reserveA * 1e18) / reserveB */\n      swap1\n      pop\n      jump(tag_50)\n        /* \"contracts/simpleDEXProject/SimpleDEX.sol\":4303:4451  if (_token == tokenB) {... */\n    tag_57:\n        /* \"contracts/simpleDEXProject/SimpleDEX.sol\":4408:4439  revert(\"Invalid token address\") */\n      mload(0x40)\n      0x08c379a000000000000000000000000000000000000000000000000000000000\n      dup2\n      mstore\n      0x04\n      add\n      tag_61\n      swap1\n      tag_62\n      jump\t// in\n    tag_61:\n      mload(0x40)\n      dup1\n      swap2\n      sub\n      swap1\n      revert\n        /* \"contracts/simpleDEXProject/SimpleDEX.sol\":4136:4458  function getPrice(address _token) external view returns (uint256) {... */\n    tag_50:\n      swap2\n      swap1\n      pop\n      jump\t// out\n        /* \"contracts/simpleDEXProject/SimpleDEX.sol\":844:865  address public tokenB */\n    tag_28:\n      0x01\n      0x00\n      swap1\n      sload\n      swap1\n      0x0100\n      exp\n      swap1\n      div\n      0xffffffffffffffffffffffffffffffffffffffff\n      and\n      dup2\n      jump\t// out\n        /* \"contracts/simpleDEXProject/SimpleDEX.sol\":2828:3443  function swapBforA(uint256 amountBIn) external {... */\n    tag_33:\n        /* \"contracts/simpleDEXProject/SimpleDEX.sol\":2925:2926  0 */\n      0x00\n        /* \"contracts/simpleDEXProject/SimpleDEX.sol\":2913:2922  amountBIn */\n      dup2\n        /* \"contracts/simpleDEXProject/SimpleDEX.sol\":2913:2926  amountBIn > 0 */\n      gt\n        /* \"contracts/simpleDEXProject/SimpleDEX.sol\":2905:2966  require(amountBIn > 0, \"Input amount must be greater than 0\") */\n      tag_64\n      jumpi\n      mload(0x40)\n      0x08c379a000000000000000000000000000000000000000000000000000000000\n      dup2\n      mstore\n      0x04\n      add\n      tag_65\n      swap1\n      tag_66\n      jump\t// in\n    tag_65:\n      mload(0x40)\n      dup1\n      swap2\n      sub\n      swap1\n      revert\n    tag_64:\n        /* \"contracts/simpleDEXProject/SimpleDEX.sol\":2977:2995  uint256 amountAOut */\n      0x00\n        /* \"contracts/simpleDEXProject/SimpleDEX.sol\":2998:3041  getAmountOut(amountBIn, reserveB, reserveA) */\n      tag_67\n        /* \"contracts/simpleDEXProject/SimpleDEX.sol\":3011:3020  amountBIn */\n      dup3\n        /* \"contracts/simpleDEXProject/SimpleDEX.sol\":3022:3030  reserveB */\n      sload(0x03)\n        /* \"contracts/simpleDEXProject/SimpleDEX.sol\":3032:3040  reserveA */\n      sload(0x02)\n        /* \"contracts/simpleDEXProject/SimpleDEX.sol\":2998:3010  getAmountOut */\n      tag_68\n        /* \"contracts/simpleDEXProject/SimpleDEX.sol\":2998:3041  getAmountOut(amountBIn, reserveB, reserveA) */\n      jump\t// in\n    tag_67:\n        /* \"contracts/simpleDEXProject/SimpleDEX.sol\":2977:3041  uint256 amountAOut = getAmountOut(amountBIn, reserveB, reserveA) */\n      swap1\n      pop\n        /* \"contracts/simpleDEXProject/SimpleDEX.sol\":3073:3074  0 */\n      0x00\n        /* \"contracts/simpleDEXProject/SimpleDEX.sol\":3060:3070  amountAOut */\n      dup2\n        /* \"contracts/simpleDEXProject/SimpleDEX.sol\":3060:3074  amountAOut > 0 */\n      gt\n        /* \"contracts/simpleDEXProject/SimpleDEX.sol\":3052:3105  require(amountAOut > 0, \"Insufficient output amount\") */\n      tag_69\n      jumpi\n      mload(0x40)\n      0x08c379a000000000000000000000000000000000000000000000000000000000\n      dup2\n      mstore\n      0x04\n      add\n      tag_70\n      swap1\n      tag_71\n      jump\t// in\n    tag_70:\n      mload(0x40)\n      dup1\n      swap2\n      sub\n      swap1\n      revert\n    tag_69:\n        /* \"contracts/simpleDEXProject/SimpleDEX.sol\":3150:3159  amountBIn */\n      dup2\n        /* \"contracts/simpleDEXProject/SimpleDEX.sol\":3138:3146  reserveB */\n      0x03\n      0x00\n        /* \"contracts/simpleDEXProject/SimpleDEX.sol\":3138:3159  reserveB += amountBIn */\n      dup3\n      dup3\n      sload\n      tag_72\n      swap2\n      swap1\n      tag_73\n      jump\t// in\n    tag_72:\n      swap3\n      pop\n      pop\n      dup2\n      swap1\n      sstore\n      pop\n        /* \"contracts/simpleDEXProject/SimpleDEX.sol\":3182:3192  amountAOut */\n      dup1\n        /* \"contracts/simpleDEXProject/SimpleDEX.sol\":3170:3178  reserveA */\n      0x02\n      0x00\n        /* \"contracts/simpleDEXProject/SimpleDEX.sol\":3170:3192  reserveA -= amountAOut */\n      dup3\n      dup3\n      sload\n      tag_74\n      swap2\n      swap1\n      tag_75\n      jump\t// in\n    tag_74:\n      swap3\n      pop\n      pop\n      dup2\n      swap1\n      sstore\n      pop\n        /* \"contracts/simpleDEXProject/SimpleDEX.sol\":3237:3243  tokenB */\n      0x01\n      0x00\n      swap1\n      sload\n      swap1\n      0x0100\n      exp\n      swap1\n      div\n      0xffffffffffffffffffffffffffffffffffffffff\n      and\n        /* \"contracts/simpleDEXProject/SimpleDEX.sol\":3230:3257  IERC20(tokenB).transferFrom */\n      0xffffffffffffffffffffffffffffffffffffffff\n      and\n      0x23b872dd\n        /* \"contracts/simpleDEXProject/SimpleDEX.sol\":3258:3268  msg.sender */\n      caller\n        /* \"contracts/simpleDEXProject/SimpleDEX.sol\":3278:3282  this */\n      address\n        /* \"contracts/simpleDEXProject/SimpleDEX.sol\":3285:3294  amountBIn */\n      dup6\n        /* \"contracts/simpleDEXProject/SimpleDEX.sol\":3230:3295  IERC20(tokenB).transferFrom(msg.sender, address(this), amountBIn) */\n      mload(0x40)\n      dup5\n      0xffffffff\n      and\n      0xe0\n      shl\n      dup2\n      mstore\n      0x04\n      add\n      tag_76\n      swap4\n      swap3\n      swap2\n      swap1\n      tag_77\n      jump\t// in\n    tag_76:\n      0x20\n      mload(0x40)\n      dup1\n      dup4\n      sub\n      dup2\n      0x00\n      dup8\n      gas\n      call\n      iszero\n      dup1\n      iszero\n      tag_79\n      jumpi\n      returndatasize\n      0x00\n      dup1\n      returndatacopy\n      revert(0x00, returndatasize)\n    tag_79:\n      pop\n      pop\n      pop\n      pop\n      mload(0x40)\n      returndatasize\n      not(0x1f)\n      0x1f\n      dup3\n      add\n      and\n      dup3\n      add\n      dup1\n      0x40\n      mstore\n      pop\n      dup2\n      add\n      swap1\n      tag_80\n      swap2\n      swap1\n      tag_81\n      jump\t// in\n    tag_80:\n      pop\n        /* \"contracts/simpleDEXProject/SimpleDEX.sol\":3313:3319  tokenA */\n      0x00\n      dup1\n      sload\n      swap1\n      0x0100\n      exp\n      swap1\n      div\n      0xffffffffffffffffffffffffffffffffffffffff\n      and\n        /* \"contracts/simpleDEXProject/SimpleDEX.sol\":3306:3329  IERC20(tokenA).transfer */\n      0xffffffffffffffffffffffffffffffffffffffff\n      and\n      0xa9059cbb\n        /* \"contracts/simpleDEXProject/SimpleDEX.sol\":3330:3340  msg.sender */\n      caller\n        /* \"contracts/simpleDEXProject/SimpleDEX.sol\":3342:3352  amountAOut */\n      dup4\n        /* \"contracts/simpleDEXProject/SimpleDEX.sol\":3306:3353  IERC20(tokenA).transfer(msg.sender, amountAOut) */\n      mload(0x40)\n      dup4\n      0xffffffff\n      and\n      0xe0\n      shl\n      dup2\n      mstore\n      0x04\n      add\n      tag_82\n      swap3\n      swap2\n      swap1\n      tag_83\n      jump\t// in\n    tag_82:\n      0x20\n      mload(0x40)\n      dup1\n      dup4\n      sub\n      dup2\n      0x00\n      dup8\n      gas\n      call\n      iszero\n      dup1\n      iszero\n      tag_85\n      jumpi\n      returndatasize\n      0x00\n      dup1\n      returndatacopy\n      revert(0x00, returndatasize)\n    tag_85:\n      pop\n      pop\n      pop\n      pop\n      mload(0x40)\n      returndatasize\n      not(0x1f)\n      0x1f\n      dup3\n      add\n      and\n      dup3\n      add\n      dup1\n      0x40\n      mstore\n      pop\n      dup2\n      add\n      swap1\n      tag_86\n      swap2\n      swap1\n      tag_81\n      jump\t// in\n    tag_86:\n      pop\n        /* \"contracts/simpleDEXProject/SimpleDEX.sol\":3405:3411  tokenA */\n      0x00\n      dup1\n      sload\n      swap1\n      0x0100\n      exp\n      swap1\n      div\n      0xffffffffffffffffffffffffffffffffffffffff\n      and\n        /* \"contracts/simpleDEXProject/SimpleDEX.sol\":3371:3435  TokensSwapped(msg.sender, tokenB, tokenA, amountBIn, amountAOut) */\n      0xffffffffffffffffffffffffffffffffffffffff\n      and\n        /* \"contracts/simpleDEXProject/SimpleDEX.sol\":3397:3403  tokenB */\n      0x01\n      0x00\n      swap1\n      sload\n      swap1\n      0x0100\n      exp\n      swap1\n      div\n      0xffffffffffffffffffffffffffffffffffffffff\n      and\n        /* \"contracts/simpleDEXProject/SimpleDEX.sol\":3371:3435  TokensSwapped(msg.sender, tokenB, tokenA, amountBIn, amountAOut) */\n      0xffffffffffffffffffffffffffffffffffffffff\n      and\n        /* \"contracts/simpleDEXProject/SimpleDEX.sol\":3385:3395  msg.sender */\n      caller\n        /* \"contracts/simpleDEXProject/SimpleDEX.sol\":3371:3435  TokensSwapped(msg.sender, tokenB, tokenA, amountBIn, amountAOut) */\n      0xffffffffffffffffffffffffffffffffffffffff\n      and\n      0xad56699d0f375866eb895ed27203058a36a713382aaded78eb6b67da266d4332\n        /* \"contracts/simpleDEXProject/SimpleDEX.sol\":3413:3422  amountBIn */\n      dup6\n        /* \"contracts/simpleDEXProject/SimpleDEX.sol\":3424:3434  amountAOut */\n      dup6\n        /* \"contracts/simpleDEXProject/SimpleDEX.sol\":3371:3435  TokensSwapped(msg.sender, tokenB, tokenA, amountBIn, amountAOut) */\n      mload(0x40)\n      tag_87\n      swap3\n      swap2\n      swap1\n      tag_88\n      jump\t// in\n    tag_87:\n      mload(0x40)\n      dup1\n      swap2\n      sub\n      swap1\n      log4\n        /* \"contracts/simpleDEXProject/SimpleDEX.sol\":2875:3443  {... */\n      pop\n        /* \"contracts/simpleDEXProject/SimpleDEX.sol\":2828:3443  function swapBforA(uint256 amountBIn) external {... */\n      pop\n      jump\t// out\n        /* \"contracts/simpleDEXProject/SimpleDEX.sol\":932:952  address public owner */\n    tag_35:\n      0x04\n      0x00\n      swap1\n      sload\n      swap1\n      0x0100\n      exp\n      swap1\n      div\n      0xffffffffffffffffffffffffffffffffffffffff\n      and\n      dup2\n      jump\t// out\n        /* \"contracts/simpleDEXProject/SimpleDEX.sol\":1590:2091  function addLiquidity(uint256 amountA, uint256 amountB) external onlyOwner {... */\n    tag_40:\n        /* \"contracts/simpleDEXProject/SimpleDEX.sol\":1339:1344  owner */\n      0x04\n      0x00\n      swap1\n      sload\n      swap1\n      0x0100\n      exp\n      swap1\n      div\n      0xffffffffffffffffffffffffffffffffffffffff\n      and\n        /* \"contracts/simpleDEXProject/SimpleDEX.sol\":1325:1344  msg.sender == owner */\n      0xffffffffffffffffffffffffffffffffffffffff\n      and\n        /* \"contracts/simpleDEXProject/SimpleDEX.sol\":1325:1335  msg.sender */\n      caller\n        /* \"contracts/simpleDEXProject/SimpleDEX.sol\":1325:1344  msg.sender == owner */\n      0xffffffffffffffffffffffffffffffffffffffff\n      and\n      eq\n        /* \"contracts/simpleDEXProject/SimpleDEX.sol\":1317:1371  require(msg.sender == owner, \"Not the contract owner\") */\n      tag_90\n      jumpi\n      mload(0x40)\n      0x08c379a000000000000000000000000000000000000000000000000000000000\n      dup2\n      mstore\n      0x04\n      add\n      tag_91\n      swap1\n      tag_92\n      jump\t// in\n    tag_91:\n      mload(0x40)\n      dup1\n      swap2\n      sub\n      swap1\n      revert\n    tag_90:\n        /* \"contracts/simpleDEXProject/SimpleDEX.sol\":1713:1714  0 */\n      0x00\n        /* \"contracts/simpleDEXProject/SimpleDEX.sol\":1703:1710  amountA */\n      dup3\n        /* \"contracts/simpleDEXProject/SimpleDEX.sol\":1703:1714  amountA > 0 */\n      gt\n        /* \"contracts/simpleDEXProject/SimpleDEX.sol\":1703:1729  amountA > 0 && amountB > 0 */\n      dup1\n      iszero\n      tag_94\n      jumpi\n      pop\n        /* \"contracts/simpleDEXProject/SimpleDEX.sol\":1728:1729  0 */\n      0x00\n        /* \"contracts/simpleDEXProject/SimpleDEX.sol\":1718:1725  amountB */\n      dup2\n        /* \"contracts/simpleDEXProject/SimpleDEX.sol\":1718:1729  amountB > 0 */\n      gt\n        /* \"contracts/simpleDEXProject/SimpleDEX.sol\":1703:1729  amountA > 0 && amountB > 0 */\n    tag_94:\n        /* \"contracts/simpleDEXProject/SimpleDEX.sol\":1695:1764  require(amountA > 0 && amountB > 0, \"Amounts must be greater than 0\") */\n      tag_95\n      jumpi\n      mload(0x40)\n      0x08c379a000000000000000000000000000000000000000000000000000000000\n      dup2\n      mstore\n      0x04\n      add\n      tag_96\n      swap1\n      tag_97\n      jump\t// in\n    tag_96:\n      mload(0x40)\n      dup1\n      swap2\n      sub\n      swap1\n      revert\n    tag_95:\n        /* \"contracts/simpleDEXProject/SimpleDEX.sol\":1809:1816  amountA */\n      dup2\n        /* \"contracts/simpleDEXProject/SimpleDEX.sol\":1797:1805  reserveA */\n      0x02\n      0x00\n        /* \"contracts/simpleDEXProject/SimpleDEX.sol\":1797:1816  reserveA += amountA */\n      dup3\n      dup3\n      sload\n      tag_98\n      swap2\n      swap1\n      tag_73\n      jump\t// in\n    tag_98:\n      swap3\n      pop\n      pop\n      dup2\n      swap1\n      sstore\n      pop\n        /* \"contracts/simpleDEXProject/SimpleDEX.sol\":1839:1846  amountB */\n      dup1\n        /* \"contracts/simpleDEXProject/SimpleDEX.sol\":1827:1835  reserveB */\n      0x03\n      0x00\n        /* \"contracts/simpleDEXProject/SimpleDEX.sol\":1827:1846  reserveB += amountB */\n      dup3\n      dup3\n      sload\n      tag_99\n      swap2\n      swap1\n      tag_73\n      jump\t// in\n    tag_99:\n      swap3\n      pop\n      pop\n      dup2\n      swap1\n      sstore\n      pop\n        /* \"contracts/simpleDEXProject/SimpleDEX.sol\":1891:1897  tokenA */\n      0x00\n      dup1\n      sload\n      swap1\n      0x0100\n      exp\n      swap1\n      div\n      0xffffffffffffffffffffffffffffffffffffffff\n      and\n        /* \"contracts/simpleDEXProject/SimpleDEX.sol\":1884:1911  IERC20(tokenA).transferFrom */\n      0xffffffffffffffffffffffffffffffffffffffff\n      and\n      0x23b872dd\n        /* \"contracts/simpleDEXProject/SimpleDEX.sol\":1912:1922  msg.sender */\n      caller\n        /* \"contracts/simpleDEXProject/SimpleDEX.sol\":1932:1936  this */\n      address\n        /* \"contracts/simpleDEXProject/SimpleDEX.sol\":1939:1946  amountA */\n      dup6\n        /* \"contracts/simpleDEXProject/SimpleDEX.sol\":1884:1947  IERC20(tokenA).transferFrom(msg.sender, address(this), amountA) */\n      mload(0x40)\n      dup5\n      0xffffffff\n      and\n      0xe0\n      shl\n      dup2\n      mstore\n      0x04\n      add\n      tag_100\n      swap4\n      swap3\n      swap2\n      swap1\n      tag_77\n      jump\t// in\n    tag_100:\n      0x20\n      mload(0x40)\n      dup1\n      dup4\n      sub\n      dup2\n      0x00\n      dup8\n      gas\n      call\n      iszero\n      dup1\n      iszero\n      tag_102\n      jumpi\n      returndatasize\n      0x00\n      dup1\n      returndatacopy\n      revert(0x00, returndatasize)\n    tag_102:\n      pop\n      pop\n      pop\n      pop\n      mload(0x40)\n      returndatasize\n      not(0x1f)\n      0x1f\n      dup3\n      add\n      and\n      dup3\n      add\n      dup1\n      0x40\n      mstore\n      pop\n      dup2\n      add\n      swap1\n      tag_103\n      swap2\n      swap1\n      tag_81\n      jump\t// in\n    tag_103:\n      pop\n        /* \"contracts/simpleDEXProject/SimpleDEX.sol\":1965:1971  tokenB */\n      0x01\n      0x00\n      swap1\n      sload\n      swap1\n      0x0100\n      exp\n      swap1\n      div\n      0xffffffffffffffffffffffffffffffffffffffff\n      and\n        /* \"contracts/simpleDEXProject/SimpleDEX.sol\":1958:1985  IERC20(tokenB).transferFrom */\n      0xffffffffffffffffffffffffffffffffffffffff\n      and\n      0x23b872dd\n        /* \"contracts/simpleDEXProject/SimpleDEX.sol\":1986:1996  msg.sender */\n      caller\n        /* \"contracts/simpleDEXProject/SimpleDEX.sol\":2006:2010  this */\n      address\n        /* \"contracts/simpleDEXProject/SimpleDEX.sol\":2013:2020  amountB */\n      dup5\n        /* \"contracts/simpleDEXProject/SimpleDEX.sol\":1958:2021  IERC20(tokenB).transferFrom(msg.sender, address(this), amountB) */\n      mload(0x40)\n      dup5\n      0xffffffff\n      and\n      0xe0\n      shl\n      dup2\n      mstore\n      0x04\n      add\n      tag_104\n      swap4\n      swap3\n      swap2\n      swap1\n      tag_77\n      jump\t// in\n    tag_104:\n      0x20\n      mload(0x40)\n      dup1\n      dup4\n      sub\n      dup2\n      0x00\n      dup8\n      gas\n      call\n      iszero\n      dup1\n      iszero\n      tag_106\n      jumpi\n      returndatasize\n      0x00\n      dup1\n      returndatacopy\n      revert(0x00, returndatasize)\n    tag_106:\n      pop\n      pop\n      pop\n      pop\n      mload(0x40)\n      returndatasize\n      not(0x1f)\n      0x1f\n      dup3\n      add\n      and\n      dup3\n      add\n      dup1\n      0x40\n      mstore\n      pop\n      dup2\n      add\n      swap1\n      tag_107\n      swap2\n      swap1\n      tag_81\n      jump\t// in\n    tag_107:\n      pop\n        /* \"contracts/simpleDEXProject/SimpleDEX.sol\":2054:2064  msg.sender */\n      caller\n        /* \"contracts/simpleDEXProject/SimpleDEX.sol\":2039:2083  LiquidityAdded(msg.sender, amountA, amountB) */\n      0xffffffffffffffffffffffffffffffffffffffff\n      and\n      0xac1d76749e5447b7b16f5ab61447e1bd502f3bb4807af3b28e620d1700a6ee45\n        /* \"contracts/simpleDEXProject/SimpleDEX.sol\":2066:2073  amountA */\n      dup4\n        /* \"contracts/simpleDEXProject/SimpleDEX.sol\":2075:2082  amountB */\n      dup4\n        /* \"contracts/simpleDEXProject/SimpleDEX.sol\":2039:2083  LiquidityAdded(msg.sender, amountA, amountB) */\n      mload(0x40)\n      tag_108\n      swap3\n      swap2\n      swap1\n      tag_88\n      jump\t// in\n    tag_108:\n      mload(0x40)\n      dup1\n      swap2\n      sub\n      swap1\n      log2\n        /* \"contracts/simpleDEXProject/SimpleDEX.sol\":1590:2091  function addLiquidity(uint256 amountA, uint256 amountB) external onlyOwner {... */\n      pop\n      pop\n      jump\t// out\n        /* \"contracts/simpleDEXProject/SimpleDEX.sol\":3498:4054  function removeLiquidity(uint256 amountA, uint256 amountB) external onlyOwner {... */\n    tag_43:\n        /* \"contracts/simpleDEXProject/SimpleDEX.sol\":1339:1344  owner */\n      0x04\n      0x00\n      swap1\n      sload\n      swap1\n      0x0100\n      exp\n      swap1\n      div\n      0xffffffffffffffffffffffffffffffffffffffff\n      and\n        /* \"contracts/simpleDEXProject/SimpleDEX.sol\":1325:1344  msg.sender == owner */\n      0xffffffffffffffffffffffffffffffffffffffff\n      and\n        /* \"contracts/simpleDEXProject/SimpleDEX.sol\":1325:1335  msg.sender */\n      caller\n        /* \"contracts/simpleDEXProject/SimpleDEX.sol\":1325:1344  msg.sender == owner */\n      0xffffffffffffffffffffffffffffffffffffffff\n      and\n      eq\n        /* \"contracts/simpleDEXProject/SimpleDEX.sol\":1317:1371  require(msg.sender == owner, \"Not the contract owner\") */\n      tag_110\n      jumpi\n      mload(0x40)\n      0x08c379a000000000000000000000000000000000000000000000000000000000\n      dup2\n      mstore\n      0x04\n      add\n      tag_111\n      swap1\n      tag_92\n      jump\t// in\n    tag_111:\n      mload(0x40)\n      dup1\n      swap2\n      sub\n      swap1\n      revert\n    tag_110:\n        /* \"contracts/simpleDEXProject/SimpleDEX.sol\":3624:3625  0 */\n      0x00\n        /* \"contracts/simpleDEXProject/SimpleDEX.sol\":3614:3621  amountA */\n      dup3\n        /* \"contracts/simpleDEXProject/SimpleDEX.sol\":3614:3625  amountA > 0 */\n      gt\n        /* \"contracts/simpleDEXProject/SimpleDEX.sol\":3614:3640  amountA > 0 && amountB > 0 */\n      dup1\n      iszero\n      tag_113\n      jumpi\n      pop\n        /* \"contracts/simpleDEXProject/SimpleDEX.sol\":3639:3640  0 */\n      0x00\n        /* \"contracts/simpleDEXProject/SimpleDEX.sol\":3629:3636  amountB */\n      dup2\n        /* \"contracts/simpleDEXProject/SimpleDEX.sol\":3629:3640  amountB > 0 */\n      gt\n        /* \"contracts/simpleDEXProject/SimpleDEX.sol\":3614:3640  amountA > 0 && amountB > 0 */\n    tag_113:\n        /* \"contracts/simpleDEXProject/SimpleDEX.sol\":3606:3675  require(amountA > 0 && amountB > 0, \"Amounts must be greater than 0\") */\n      tag_114\n      jumpi\n      mload(0x40)\n      0x08c379a000000000000000000000000000000000000000000000000000000000\n      dup2\n      mstore\n      0x04\n      add\n      tag_115\n      swap1\n      tag_97\n      jump\t// in\n    tag_115:\n      mload(0x40)\n      dup1\n      swap2\n      sub\n      swap1\n      revert\n    tag_114:\n        /* \"contracts/simpleDEXProject/SimpleDEX.sol\":3705:3713  reserveA */\n      sload(0x02)\n        /* \"contracts/simpleDEXProject/SimpleDEX.sol\":3694:3701  amountA */\n      dup3\n        /* \"contracts/simpleDEXProject/SimpleDEX.sol\":3694:3713  amountA <= reserveA */\n      gt\n      iszero\n        /* \"contracts/simpleDEXProject/SimpleDEX.sol\":3694:3736  amountA <= reserveA && amountB <= reserveB */\n      dup1\n      iszero\n      tag_116\n      jumpi\n      pop\n        /* \"contracts/simpleDEXProject/SimpleDEX.sol\":3728:3736  reserveB */\n      sload(0x03)\n        /* \"contracts/simpleDEXProject/SimpleDEX.sol\":3717:3724  amountB */\n      dup2\n        /* \"contracts/simpleDEXProject/SimpleDEX.sol\":3717:3736  amountB <= reserveB */\n      gt\n      iszero\n        /* \"contracts/simpleDEXProject/SimpleDEX.sol\":3694:3736  amountA <= reserveA && amountB <= reserveB */\n    tag_116:\n        /* \"contracts/simpleDEXProject/SimpleDEX.sol\":3686:3763  require(amountA <= reserveA && amountB <= reserveB, \"Insufficient liquidity\") */\n      tag_117\n      jumpi\n      mload(0x40)\n      0x08c379a000000000000000000000000000000000000000000000000000000000\n      dup2\n      mstore\n      0x04\n      add\n      tag_118\n      swap1\n      tag_119\n      jump\t// in\n    tag_118:\n      mload(0x40)\n      dup1\n      swap2\n      sub\n      swap1\n      revert\n    tag_117:\n        /* \"contracts/simpleDEXProject/SimpleDEX.sol\":3808:3815  amountA */\n      dup2\n        /* \"contracts/simpleDEXProject/SimpleDEX.sol\":3796:3804  reserveA */\n      0x02\n      0x00\n        /* \"contracts/simpleDEXProject/SimpleDEX.sol\":3796:3815  reserveA -= amountA */\n      dup3\n      dup3\n      sload\n      tag_120\n      swap2\n      swap1\n      tag_75\n      jump\t// in\n    tag_120:\n      swap3\n      pop\n      pop\n      dup2\n      swap1\n      sstore\n      pop\n        /* \"contracts/simpleDEXProject/SimpleDEX.sol\":3838:3845  amountB */\n      dup1\n        /* \"contracts/simpleDEXProject/SimpleDEX.sol\":3826:3834  reserveB */\n      0x03\n      0x00\n        /* \"contracts/simpleDEXProject/SimpleDEX.sol\":3826:3845  reserveB -= amountB */\n      dup3\n      dup3\n      sload\n      tag_121\n      swap2\n      swap1\n      tag_75\n      jump\t// in\n    tag_121:\n      swap3\n      pop\n      pop\n      dup2\n      swap1\n      sstore\n      pop\n        /* \"contracts/simpleDEXProject/SimpleDEX.sol\":3890:3896  tokenA */\n      0x00\n      dup1\n      sload\n      swap1\n      0x0100\n      exp\n      swap1\n      div\n      0xffffffffffffffffffffffffffffffffffffffff\n      and\n        /* \"contracts/simpleDEXProject/SimpleDEX.sol\":3883:3906  IERC20(tokenA).transfer */\n      0xffffffffffffffffffffffffffffffffffffffff\n      and\n      0xa9059cbb\n        /* \"contracts/simpleDEXProject/SimpleDEX.sol\":3907:3917  msg.sender */\n      caller\n        /* \"contracts/simpleDEXProject/SimpleDEX.sol\":3919:3926  amountA */\n      dup5\n        /* \"contracts/simpleDEXProject/SimpleDEX.sol\":3883:3927  IERC20(tokenA).transfer(msg.sender, amountA) */\n      mload(0x40)\n      dup4\n      0xffffffff\n      and\n      0xe0\n      shl\n      dup2\n      mstore\n      0x04\n      add\n      tag_122\n      swap3\n      swap2\n      swap1\n      tag_83\n      jump\t// in\n    tag_122:\n      0x20\n      mload(0x40)\n      dup1\n      dup4\n      sub\n      dup2\n      0x00\n      dup8\n      gas\n      call\n      iszero\n      dup1\n      iszero\n      tag_124\n      jumpi\n      returndatasize\n      0x00\n      dup1\n      returndatacopy\n      revert(0x00, returndatasize)\n    tag_124:\n      pop\n      pop\n      pop\n      pop\n      mload(0x40)\n      returndatasize\n      not(0x1f)\n      0x1f\n      dup3\n      add\n      and\n      dup3\n      add\n      dup1\n      0x40\n      mstore\n      pop\n      dup2\n      add\n      swap1\n      tag_125\n      swap2\n      swap1\n      tag_81\n      jump\t// in\n    tag_125:\n      pop\n        /* \"contracts/simpleDEXProject/SimpleDEX.sol\":3945:3951  tokenB */\n      0x01\n      0x00\n      swap1\n      sload\n      swap1\n      0x0100\n      exp\n      swap1\n      div\n      0xffffffffffffffffffffffffffffffffffffffff\n      and\n        /* \"contracts/simpleDEXProject/SimpleDEX.sol\":3938:3961  IERC20(tokenB).transfer */\n      0xffffffffffffffffffffffffffffffffffffffff\n      and\n      0xa9059cbb\n        /* \"contracts/simpleDEXProject/SimpleDEX.sol\":3962:3972  msg.sender */\n      caller\n        /* \"contracts/simpleDEXProject/SimpleDEX.sol\":3974:3981  amountB */\n      dup4\n        /* \"contracts/simpleDEXProject/SimpleDEX.sol\":3938:3982  IERC20(tokenB).transfer(msg.sender, amountB) */\n      mload(0x40)\n      dup4\n      0xffffffff\n      and\n      0xe0\n      shl\n      dup2\n      mstore\n      0x04\n      add\n      tag_126\n      swap3\n      swap2\n      swap1\n      tag_83\n      jump\t// in\n    tag_126:\n      0x20\n      mload(0x40)\n      dup1\n      dup4\n      sub\n      dup2\n      0x00\n      dup8\n      gas\n      call\n      iszero\n      dup1\n      iszero\n      tag_128\n      jumpi\n      returndatasize\n      0x00\n      dup1\n      returndatacopy\n      revert(0x00, returndatasize)\n    tag_128:\n      pop\n      pop\n      pop\n      pop\n      mload(0x40)\n      returndatasize\n      not(0x1f)\n      0x1f\n      dup3\n      add\n      and\n      dup3\n      add\n      dup1\n      0x40\n      mstore\n      pop\n      dup2\n      add\n      swap1\n      tag_129\n      swap2\n      swap1\n      tag_81\n      jump\t// in\n    tag_129:\n      pop\n        /* \"contracts/simpleDEXProject/SimpleDEX.sol\":4017:4027  msg.sender */\n      caller\n        /* \"contracts/simpleDEXProject/SimpleDEX.sol\":4000:4046  LiquidityRemoved(msg.sender, amountA, amountB) */\n      0xffffffffffffffffffffffffffffffffffffffff\n      and\n      0x96cd817c6329656790ef8fba7675405193677d39619571282f5e21f3a98cd059\n        /* \"contracts/simpleDEXProject/SimpleDEX.sol\":4029:4036  amountA */\n      dup4\n        /* \"contracts/simpleDEXProject/SimpleDEX.sol\":4038:4045  amountB */\n      dup4\n        /* \"contracts/simpleDEXProject/SimpleDEX.sol\":4000:4046  LiquidityRemoved(msg.sender, amountA, amountB) */\n      mload(0x40)\n      tag_130\n      swap3\n      swap2\n      swap1\n      tag_88\n      jump\t// in\n    tag_130:\n      mload(0x40)\n      dup1\n      swap2\n      sub\n      swap1\n      log2\n        /* \"contracts/simpleDEXProject/SimpleDEX.sol\":3498:4054  function removeLiquidity(uint256 amountA, uint256 amountB) external onlyOwner {... */\n      pop\n      pop\n      jump\t// out\n        /* \"contracts/simpleDEXProject/SimpleDEX.sol\":872:895  uint256 public reserveA */\n    tag_45:\n      sload(0x02)\n      dup2\n      jump\t// out\n        /* \"contracts/simpleDEXProject/SimpleDEX.sol\":2152:2767  function swapAforB(uint256 amountAIn) external {... */\n    tag_49:\n        /* \"contracts/simpleDEXProject/SimpleDEX.sol\":2249:2250  0 */\n      0x00\n        /* \"contracts/simpleDEXProject/SimpleDEX.sol\":2237:2246  amountAIn */\n      dup2\n        /* \"contracts/simpleDEXProject/SimpleDEX.sol\":2237:2250  amountAIn > 0 */\n      gt\n        /* \"contracts/simpleDEXProject/SimpleDEX.sol\":2229:2290  require(amountAIn > 0, \"Input amount must be greater than 0\") */\n      tag_132\n      jumpi\n      mload(0x40)\n      0x08c379a000000000000000000000000000000000000000000000000000000000\n      dup2\n      mstore\n      0x04\n      add\n      tag_133\n      swap1\n      tag_66\n      jump\t// in\n    tag_133:\n      mload(0x40)\n      dup1\n      swap2\n      sub\n      swap1\n      revert\n    tag_132:\n        /* \"contracts/simpleDEXProject/SimpleDEX.sol\":2301:2319  uint256 amountBOut */\n      0x00\n        /* \"contracts/simpleDEXProject/SimpleDEX.sol\":2322:2365  getAmountOut(amountAIn, reserveA, reserveB) */\n      tag_134\n        /* \"contracts/simpleDEXProject/SimpleDEX.sol\":2335:2344  amountAIn */\n      dup3\n        /* \"contracts/simpleDEXProject/SimpleDEX.sol\":2346:2354  reserveA */\n      sload(0x02)\n        /* \"contracts/simpleDEXProject/SimpleDEX.sol\":2356:2364  reserveB */\n      sload(0x03)\n        /* \"contracts/simpleDEXProject/SimpleDEX.sol\":2322:2334  getAmountOut */\n      tag_68\n        /* \"contracts/simpleDEXProject/SimpleDEX.sol\":2322:2365  getAmountOut(amountAIn, reserveA, reserveB) */\n      jump\t// in\n    tag_134:\n        /* \"contracts/simpleDEXProject/SimpleDEX.sol\":2301:2365  uint256 amountBOut = getAmountOut(amountAIn, reserveA, reserveB) */\n      swap1\n      pop\n        /* \"contracts/simpleDEXProject/SimpleDEX.sol\":2397:2398  0 */\n      0x00\n        /* \"contracts/simpleDEXProject/SimpleDEX.sol\":2384:2394  amountBOut */\n      dup2\n        /* \"contracts/simpleDEXProject/SimpleDEX.sol\":2384:2398  amountBOut > 0 */\n      gt\n        /* \"contracts/simpleDEXProject/SimpleDEX.sol\":2376:2429  require(amountBOut > 0, \"Insufficient output amount\") */\n      tag_135\n      jumpi\n      mload(0x40)\n      0x08c379a000000000000000000000000000000000000000000000000000000000\n      dup2\n      mstore\n      0x04\n      add\n      tag_136\n      swap1\n      tag_71\n      jump\t// in\n    tag_136:\n      mload(0x40)\n      dup1\n      swap2\n      sub\n      swap1\n      revert\n    tag_135:\n        /* \"contracts/simpleDEXProject/SimpleDEX.sol\":2474:2483  amountAIn */\n      dup2\n        /* \"contracts/simpleDEXProject/SimpleDEX.sol\":2462:2470  reserveA */\n      0x02\n      0x00\n        /* \"contracts/simpleDEXProject/SimpleDEX.sol\":2462:2483  reserveA += amountAIn */\n      dup3\n      dup3\n      sload\n      tag_137\n      swap2\n      swap1\n      tag_73\n      jump\t// in\n    tag_137:\n      swap3\n      pop\n      pop\n      dup2\n      swap1\n      sstore\n      pop\n        /* \"contracts/simpleDEXProject/SimpleDEX.sol\":2506:2516  amountBOut */\n      dup1\n        /* \"contracts/simpleDEXProject/SimpleDEX.sol\":2494:2502  reserveB */\n      0x03\n      0x00\n        /* \"contracts/simpleDEXProject/SimpleDEX.sol\":2494:2516  reserveB -= amountBOut */\n      dup3\n      dup3\n      sload\n      tag_138\n      swap2\n      swap1\n      tag_75\n      jump\t// in\n    tag_138:\n      swap3\n      pop\n      pop\n      dup2\n      swap1\n      sstore\n      pop\n        /* \"contracts/simpleDEXProject/SimpleDEX.sol\":2561:2567  tokenA */\n      0x00\n      dup1\n      sload\n      swap1\n      0x0100\n      exp\n      swap1\n      div\n      0xffffffffffffffffffffffffffffffffffffffff\n      and\n        /* \"contracts/simpleDEXProject/SimpleDEX.sol\":2554:2581  IERC20(tokenA).transferFrom */\n      0xffffffffffffffffffffffffffffffffffffffff\n      and\n      0x23b872dd\n        /* \"contracts/simpleDEXProject/SimpleDEX.sol\":2582:2592  msg.sender */\n      caller\n        /* \"contracts/simpleDEXProject/SimpleDEX.sol\":2602:2606  this */\n      address\n        /* \"contracts/simpleDEXProject/SimpleDEX.sol\":2609:2618  amountAIn */\n      dup6\n        /* \"contracts/simpleDEXProject/SimpleDEX.sol\":2554:2619  IERC20(tokenA).transferFrom(msg.sender, address(this), amountAIn) */\n      mload(0x40)\n      dup5\n      0xffffffff\n      and\n      0xe0\n      shl\n      dup2\n      mstore\n      0x04\n      add\n      tag_139\n      swap4\n      swap3\n      swap2\n      swap1\n      tag_77\n      jump\t// in\n    tag_139:\n      0x20\n      mload(0x40)\n      dup1\n      dup4\n      sub\n      dup2\n      0x00\n      dup8\n      gas\n      call\n      iszero\n      dup1\n      iszero\n      tag_141\n      jumpi\n      returndatasize\n      0x00\n      dup1\n      returndatacopy\n      revert(0x00, returndatasize)\n    tag_141:\n      pop\n      pop\n      pop\n      pop\n      mload(0x40)\n      returndatasize\n      not(0x1f)\n      0x1f\n      dup3\n      add\n      and\n      dup3\n      add\n      dup1\n      0x40\n      mstore\n      pop\n      dup2\n      add\n      swap1\n      tag_142\n      swap2\n      swap1\n      tag_81\n      jump\t// in\n    tag_142:\n      pop\n        /* \"contracts/simpleDEXProject/SimpleDEX.sol\":2637:2643  tokenB */\n      0x01\n      0x00\n      swap1\n      sload\n      swap1\n      0x0100\n      exp\n      swap1\n      div\n      0xffffffffffffffffffffffffffffffffffffffff\n      and\n        /* \"contracts/simpleDEXProject/SimpleDEX.sol\":2630:2653  IERC20(tokenB).transfer */\n      0xffffffffffffffffffffffffffffffffffffffff\n      and\n      0xa9059cbb\n        /* \"contracts/simpleDEXProject/SimpleDEX.sol\":2654:2664  msg.sender */\n      caller\n        /* \"contracts/simpleDEXProject/SimpleDEX.sol\":2666:2676  amountBOut */\n      dup4\n        /* \"contracts/simpleDEXProject/SimpleDEX.sol\":2630:2677  IERC20(tokenB).transfer(msg.sender, amountBOut) */\n      mload(0x40)\n      dup4\n      0xffffffff\n      and\n      0xe0\n      shl\n      dup2\n      mstore\n      0x04\n      add\n      tag_143\n      swap3\n      swap2\n      swap1\n      tag_83\n      jump\t// in\n    tag_143:\n      0x20\n      mload(0x40)\n      dup1\n      dup4\n      sub\n      dup2\n      0x00\n      dup8\n      gas\n      call\n      iszero\n      dup1\n      iszero\n      tag_145\n      jumpi\n      returndatasize\n      0x00\n      dup1\n      returndatacopy\n      revert(0x00, returndatasize)\n    tag_145:\n      pop\n      pop\n      pop\n      pop\n      mload(0x40)\n      returndatasize\n      not(0x1f)\n      0x1f\n      dup3\n      add\n      and\n      dup3\n      add\n      dup1\n      0x40\n      mstore\n      pop\n      dup2\n      add\n      swap1\n      tag_146\n      swap2\n      swap1\n      tag_81\n      jump\t// in\n    tag_146:\n      pop\n        /* \"contracts/simpleDEXProject/SimpleDEX.sol\":2729:2735  tokenB */\n      0x01\n      0x00\n      swap1\n      sload\n      swap1\n      0x0100\n      exp\n      swap1\n      div\n      0xffffffffffffffffffffffffffffffffffffffff\n      and\n        /* \"contracts/simpleDEXProject/SimpleDEX.sol\":2695:2759  TokensSwapped(msg.sender, tokenA, tokenB, amountAIn, amountBOut) */\n      0xffffffffffffffffffffffffffffffffffffffff\n      and\n        /* \"contracts/simpleDEXProject/SimpleDEX.sol\":2721:2727  tokenA */\n      0x00\n      dup1\n      sload\n      swap1\n      0x0100\n      exp\n      swap1\n      div\n      0xffffffffffffffffffffffffffffffffffffffff\n      and\n        /* \"contracts/simpleDEXProject/SimpleDEX.sol\":2695:2759  TokensSwapped(msg.sender, tokenA, tokenB, amountAIn, amountBOut) */\n      0xffffffffffffffffffffffffffffffffffffffff\n      and\n        /* \"contracts/simpleDEXProject/SimpleDEX.sol\":2709:2719  msg.sender */\n      caller\n        /* \"contracts/simpleDEXProject/SimpleDEX.sol\":2695:2759  TokensSwapped(msg.sender, tokenA, tokenB, amountAIn, amountBOut) */\n      0xffffffffffffffffffffffffffffffffffffffff\n      and\n      0xad56699d0f375866eb895ed27203058a36a713382aaded78eb6b67da266d4332\n        /* \"contracts/simpleDEXProject/SimpleDEX.sol\":2737:2746  amountAIn */\n      dup6\n        /* \"contracts/simpleDEXProject/SimpleDEX.sol\":2748:2758  amountBOut */\n      dup6\n        /* \"contracts/simpleDEXProject/SimpleDEX.sol\":2695:2759  TokensSwapped(msg.sender, tokenA, tokenB, amountAIn, amountBOut) */\n      mload(0x40)\n      tag_147\n      swap3\n      swap2\n      swap1\n      tag_88\n      jump\t// in\n    tag_147:\n      mload(0x40)\n      dup1\n      swap2\n      sub\n      swap1\n      log4\n        /* \"contracts/simpleDEXProject/SimpleDEX.sol\":2199:2767  {... */\n      pop\n        /* \"contracts/simpleDEXProject/SimpleDEX.sol\":2152:2767  function swapAforB(uint256 amountAIn) external {... */\n      pop\n      jump\t// out\n        /* \"contracts/simpleDEXProject/SimpleDEX.sol\":4555:5027  function getAmountOut(uint256 inputAmount, uint256 inputReserve, uint256 outputReserve) internal pure returns (uint256) {... */\n    tag_68:\n        /* \"contracts/simpleDEXProject/SimpleDEX.sol\":4666:4673  uint256 */\n      0x00\n        /* \"contracts/simpleDEXProject/SimpleDEX.sol\":4709:4710  0 */\n      dup1\n        /* \"contracts/simpleDEXProject/SimpleDEX.sol\":4694:4706  inputReserve */\n      dup4\n        /* \"contracts/simpleDEXProject/SimpleDEX.sol\":4694:4710  inputReserve > 0 */\n      gt\n        /* \"contracts/simpleDEXProject/SimpleDEX.sol\":4694:4731  inputReserve > 0 && outputReserve > 0 */\n      dup1\n      iszero\n      tag_149\n      jumpi\n      pop\n        /* \"contracts/simpleDEXProject/SimpleDEX.sol\":4730:4731  0 */\n      0x00\n        /* \"contracts/simpleDEXProject/SimpleDEX.sol\":4714:4727  outputReserve */\n      dup3\n        /* \"contracts/simpleDEXProject/SimpleDEX.sol\":4714:4731  outputReserve > 0 */\n      gt\n        /* \"contracts/simpleDEXProject/SimpleDEX.sol\":4694:4731  inputReserve > 0 && outputReserve > 0 */\n    tag_149:\n        /* \"contracts/simpleDEXProject/SimpleDEX.sol\":4686:4752  require(inputReserve > 0 && outputReserve > 0, \"Invalid reserves\") */\n      tag_150\n      jumpi\n      mload(0x40)\n      0x08c379a000000000000000000000000000000000000000000000000000000000\n      dup2\n      mstore\n      0x04\n      add\n      tag_151\n      swap1\n      tag_152\n      jump\t// in\n    tag_151:\n      mload(0x40)\n      dup1\n      swap2\n      sub\n      swap1\n      revert\n    tag_150:\n        /* \"contracts/simpleDEXProject/SimpleDEX.sol\":4763:4789  uint256 inputAmountWithFee */\n      0x00\n        /* \"contracts/simpleDEXProject/SimpleDEX.sol\":4806:4809  997 */\n      0x03e5\n        /* \"contracts/simpleDEXProject/SimpleDEX.sol\":4792:4803  inputAmount */\n      dup6\n        /* \"contracts/simpleDEXProject/SimpleDEX.sol\":4792:4809  inputAmount * 997 */\n      tag_153\n      swap2\n      swap1\n      tag_53\n      jump\t// in\n    tag_153:\n        /* \"contracts/simpleDEXProject/SimpleDEX.sol\":4763:4809  uint256 inputAmountWithFee = inputAmount * 997 */\n      swap1\n      pop\n        /* \"contracts/simpleDEXProject/SimpleDEX.sol\":4849:4866  uint256 numerator */\n      0x00\n        /* \"contracts/simpleDEXProject/SimpleDEX.sol\":4890:4903  outputReserve */\n      dup4\n        /* \"contracts/simpleDEXProject/SimpleDEX.sol\":4869:4887  inputAmountWithFee */\n      dup3\n        /* \"contracts/simpleDEXProject/SimpleDEX.sol\":4869:4903  inputAmountWithFee * outputReserve */\n      tag_154\n      swap2\n      swap1\n      tag_53\n      jump\t// in\n    tag_154:\n        /* \"contracts/simpleDEXProject/SimpleDEX.sol\":4849:4903  uint256 numerator = inputAmountWithFee * outputReserve */\n      swap1\n      pop\n        /* \"contracts/simpleDEXProject/SimpleDEX.sol\":4914:4933  uint256 denominator */\n      0x00\n        /* \"contracts/simpleDEXProject/SimpleDEX.sol\":4960:4978  inputAmountWithFee */\n      dup3\n        /* \"contracts/simpleDEXProject/SimpleDEX.sol\":4952:4956  1000 */\n      0x03e8\n        /* \"contracts/simpleDEXProject/SimpleDEX.sol\":4937:4949  inputReserve */\n      dup8\n        /* \"contracts/simpleDEXProject/SimpleDEX.sol\":4937:4956  inputReserve * 1000 */\n      tag_155\n      swap2\n      swap1\n      tag_53\n      jump\t// in\n    tag_155:\n        /* \"contracts/simpleDEXProject/SimpleDEX.sol\":4936:4978  (inputReserve * 1000) + inputAmountWithFee */\n      tag_156\n      swap2\n      swap1\n      tag_73\n      jump\t// in\n    tag_156:\n        /* \"contracts/simpleDEXProject/SimpleDEX.sol\":4914:4978  uint256 denominator = (inputReserve * 1000) + inputAmountWithFee */\n      swap1\n      pop\n        /* \"contracts/simpleDEXProject/SimpleDEX.sol\":5008:5019  denominator */\n      dup1\n        /* \"contracts/simpleDEXProject/SimpleDEX.sol\":4996:5005  numerator */\n      dup3\n        /* \"contracts/simpleDEXProject/SimpleDEX.sol\":4996:5019  numerator / denominator */\n      tag_157\n      swap2\n      swap1\n      tag_55\n      jump\t// in\n    tag_157:\n        /* \"contracts/simpleDEXProject/SimpleDEX.sol\":4989:5019  return numerator / denominator */\n      swap4\n      pop\n      pop\n      pop\n      pop\n        /* \"contracts/simpleDEXProject/SimpleDEX.sol\":4555:5027  function getAmountOut(uint256 inputAmount, uint256 inputReserve, uint256 outputReserve) internal pure returns (uint256) {... */\n      swap4\n      swap3\n      pop\n      pop\n      pop\n      jump\t// out\n        /* \"#utility.yul\":7:133   */\n    tag_158:\n        /* \"#utility.yul\":44:51   */\n      0x00\n        /* \"#utility.yul\":84:126   */\n      0xffffffffffffffffffffffffffffffffffffffff\n        /* \"#utility.yul\":77:82   */\n      dup3\n        /* \"#utility.yul\":73:127   */\n      and\n        /* \"#utility.yul\":62:127   */\n      swap1\n      pop\n        /* \"#utility.yul\":7:133   */\n      swap2\n      swap1\n      pop\n      jump\t// out\n        /* \"#utility.yul\":139:235   */\n    tag_159:\n        /* \"#utility.yul\":176:183   */\n      0x00\n        /* \"#utility.yul\":205:229   */\n      tag_193\n        /* \"#utility.yul\":223:228   */\n      dup3\n        /* \"#utility.yul\":205:229   */\n      tag_158\n      jump\t// in\n    tag_193:\n        /* \"#utility.yul\":194:229   */\n      swap1\n      pop\n        /* \"#utility.yul\":139:235   */\n      swap2\n      swap1\n      pop\n      jump\t// out\n        /* \"#utility.yul\":241:359   */\n    tag_160:\n        /* \"#utility.yul\":328:352   */\n      tag_195\n        /* \"#utility.yul\":346:351   */\n      dup2\n        /* \"#utility.yul\":328:352   */\n      tag_159\n      jump\t// in\n    tag_195:\n        /* \"#utility.yul\":323:326   */\n      dup3\n        /* \"#utility.yul\":316:353   */\n      mstore\n        /* \"#utility.yul\":241:359   */\n      pop\n      pop\n      jump\t// out\n        /* \"#utility.yul\":365:587   */\n    tag_17:\n        /* \"#utility.yul\":458:462   */\n      0x00\n        /* \"#utility.yul\":496:498   */\n      0x20\n        /* \"#utility.yul\":485:494   */\n      dup3\n        /* \"#utility.yul\":481:499   */\n      add\n        /* \"#utility.yul\":473:499   */\n      swap1\n      pop\n        /* \"#utility.yul\":509:580   */\n      tag_197\n        /* \"#utility.yul\":577:578   */\n      0x00\n        /* \"#utility.yul\":566:575   */\n      dup4\n        /* \"#utility.yul\":562:579   */\n      add\n        /* \"#utility.yul\":553:559   */\n      dup5\n        /* \"#utility.yul\":509:580   */\n      tag_160\n      jump\t// in\n    tag_197:\n        /* \"#utility.yul\":365:587   */\n      swap3\n      swap2\n      pop\n      pop\n      jump\t// out\n        /* \"#utility.yul\":593:670   */\n    tag_161:\n        /* \"#utility.yul\":630:637   */\n      0x00\n        /* \"#utility.yul\":659:664   */\n      dup2\n        /* \"#utility.yul\":648:664   */\n      swap1\n      pop\n        /* \"#utility.yul\":593:670   */\n      swap2\n      swap1\n      pop\n      jump\t// out\n        /* \"#utility.yul\":676:794   */\n    tag_162:\n        /* \"#utility.yul\":763:787   */\n      tag_200\n        /* \"#utility.yul\":781:786   */\n      dup2\n        /* \"#utility.yul\":763:787   */\n      tag_161\n      jump\t// in\n    tag_200:\n        /* \"#utility.yul\":758:761   */\n      dup3\n        /* \"#utility.yul\":751:788   */\n      mstore\n        /* \"#utility.yul\":676:794   */\n      pop\n      pop\n      jump\t// out\n        /* \"#utility.yul\":800:1022   */\n    tag_21:\n        /* \"#utility.yul\":893:897   */\n      0x00\n        /* \"#utility.yul\":931:933   */\n      0x20\n        /* \"#utility.yul\":920:929   */\n      dup3\n        /* \"#utility.yul\":916:934   */\n      add\n        /* \"#utility.yul\":908:934   */\n      swap1\n      pop\n        /* \"#utility.yul\":944:1015   */\n      tag_202\n        /* \"#utility.yul\":1012:1013   */\n      0x00\n        /* \"#utility.yul\":1001:1010   */\n      dup4\n        /* \"#utility.yul\":997:1014   */\n      add\n        /* \"#utility.yul\":988:994   */\n      dup5\n        /* \"#utility.yul\":944:1015   */\n      tag_162\n      jump\t// in\n    tag_202:\n        /* \"#utility.yul\":800:1022   */\n      swap3\n      swap2\n      pop\n      pop\n      jump\t// out\n        /* \"#utility.yul\":1109:1226   */\n    tag_164:\n        /* \"#utility.yul\":1218:1219   */\n      0x00\n        /* \"#utility.yul\":1215:1216   */\n      dup1\n        /* \"#utility.yul\":1208:1220   */\n      revert\n        /* \"#utility.yul\":1355:1477   */\n    tag_166:\n        /* \"#utility.yul\":1428:1452   */\n      tag_207\n        /* \"#utility.yul\":1446:1451   */\n      dup2\n        /* \"#utility.yul\":1428:1452   */\n      tag_159\n      jump\t// in\n    tag_207:\n        /* \"#utility.yul\":1421:1426   */\n      dup2\n        /* \"#utility.yul\":1418:1453   */\n      eq\n        /* \"#utility.yul\":1408:1471   */\n      tag_208\n      jumpi\n        /* \"#utility.yul\":1467:1468   */\n      0x00\n        /* \"#utility.yul\":1464:1465   */\n      dup1\n        /* \"#utility.yul\":1457:1469   */\n      revert\n        /* \"#utility.yul\":1408:1471   */\n    tag_208:\n        /* \"#utility.yul\":1355:1477   */\n      pop\n      jump\t// out\n        /* \"#utility.yul\":1483:1622   */\n    tag_167:\n        /* \"#utility.yul\":1529:1534   */\n      0x00\n        /* \"#utility.yul\":1567:1573   */\n      dup2\n        /* \"#utility.yul\":1554:1574   */\n      calldataload\n        /* \"#utility.yul\":1545:1574   */\n      swap1\n      pop\n        /* \"#utility.yul\":1583:1616   */\n      tag_210\n        /* \"#utility.yul\":1610:1615   */\n      dup2\n        /* \"#utility.yul\":1583:1616   */\n      tag_166\n      jump\t// in\n    tag_210:\n        /* \"#utility.yul\":1483:1622   */\n      swap3\n      swap2\n      pop\n      pop\n      jump\t// out\n        /* \"#utility.yul\":1628:1957   */\n    tag_24:\n        /* \"#utility.yul\":1687:1693   */\n      0x00\n        /* \"#utility.yul\":1736:1738   */\n      0x20\n        /* \"#utility.yul\":1724:1733   */\n      dup3\n        /* \"#utility.yul\":1715:1722   */\n      dup5\n        /* \"#utility.yul\":1711:1734   */\n      sub\n        /* \"#utility.yul\":1707:1739   */\n      slt\n        /* \"#utility.yul\":1704:1823   */\n      iszero\n      tag_212\n      jumpi\n        /* \"#utility.yul\":1742:1821   */\n      tag_213\n      tag_164\n      jump\t// in\n    tag_213:\n        /* \"#utility.yul\":1704:1823   */\n    tag_212:\n        /* \"#utility.yul\":1862:1863   */\n      0x00\n        /* \"#utility.yul\":1887:1940   */\n      tag_214\n        /* \"#utility.yul\":1932:1939   */\n      dup5\n        /* \"#utility.yul\":1923:1929   */\n      dup3\n        /* \"#utility.yul\":1912:1921   */\n      dup6\n        /* \"#utility.yul\":1908:1930   */\n      add\n        /* \"#utility.yul\":1887:1940   */\n      tag_167\n      jump\t// in\n    tag_214:\n        /* \"#utility.yul\":1877:1940   */\n      swap2\n      pop\n        /* \"#utility.yul\":1833:1950   */\n      pop\n        /* \"#utility.yul\":1628:1957   */\n      swap3\n      swap2\n      pop\n      pop\n      jump\t// out\n        /* \"#utility.yul\":1963:2085   */\n    tag_168:\n        /* \"#utility.yul\":2036:2060   */\n      tag_216\n        /* \"#utility.yul\":2054:2059   */\n      dup2\n        /* \"#utility.yul\":2036:2060   */\n      tag_161\n      jump\t// in\n    tag_216:\n        /* \"#utility.yul\":2029:2034   */\n      dup2\n        /* \"#utility.yul\":2026:2061   */\n      eq\n        /* \"#utility.yul\":2016:2079   */\n      tag_217\n      jumpi\n        /* \"#utility.yul\":2075:2076   */\n      0x00\n        /* \"#utility.yul\":2072:2073   */\n      dup1\n        /* \"#utility.yul\":2065:2077   */\n      revert\n        /* \"#utility.yul\":2016:2079   */\n    tag_217:\n        /* \"#utility.yul\":1963:2085   */\n      pop\n      jump\t// out\n        /* \"#utility.yul\":2091:2230   */\n    tag_169:\n        /* \"#utility.yul\":2137:2142   */\n      0x00\n        /* \"#utility.yul\":2175:2181   */\n      dup2\n        /* \"#utility.yul\":2162:2182   */\n      calldataload\n        /* \"#utility.yul\":2153:2182   */\n      swap1\n      pop\n        /* \"#utility.yul\":2191:2224   */\n      tag_219\n        /* \"#utility.yul\":2218:2223   */\n      dup2\n        /* \"#utility.yul\":2191:2224   */\n      tag_168\n      jump\t// in\n    tag_219:\n        /* \"#utility.yul\":2091:2230   */\n      swap3\n      swap2\n      pop\n      pop\n      jump\t// out\n        /* \"#utility.yul\":2236:2565   */\n    tag_32:\n        /* \"#utility.yul\":2295:2301   */\n      0x00\n        /* \"#utility.yul\":2344:2346   */\n      0x20\n        /* \"#utility.yul\":2332:2341   */\n      dup3\n        /* \"#utility.yul\":2323:2330   */\n      dup5\n        /* \"#utility.yul\":2319:2342   */\n      sub\n        /* \"#utility.yul\":2315:2347   */\n      slt\n        /* \"#utility.yul\":2312:2431   */\n      iszero\n      tag_221\n      jumpi\n        /* \"#utility.yul\":2350:2429   */\n      tag_222\n      tag_164\n      jump\t// in\n    tag_222:\n        /* \"#utility.yul\":2312:2431   */\n    tag_221:\n        /* \"#utility.yul\":2470:2471   */\n      0x00\n        /* \"#utility.yul\":2495:2548   */\n      tag_223\n        /* \"#utility.yul\":2540:2547   */\n      dup5\n        /* \"#utility.yul\":2531:2537   */\n      dup3\n        /* \"#utility.yul\":2520:2529   */\n      dup6\n        /* \"#utility.yul\":2516:2538   */\n      add\n        /* \"#utility.yul\":2495:2548   */\n      tag_169\n      jump\t// in\n    tag_223:\n        /* \"#utility.yul\":2485:2548   */\n      swap2\n      pop\n        /* \"#utility.yul\":2441:2558   */\n      pop\n        /* \"#utility.yul\":2236:2565   */\n      swap3\n      swap2\n      pop\n      pop\n      jump\t// out\n        /* \"#utility.yul\":2571:3045   */\n    tag_39:\n        /* \"#utility.yul\":2639:2645   */\n      0x00\n        /* \"#utility.yul\":2647:2653   */\n      dup1\n        /* \"#utility.yul\":2696:2698   */\n      0x40\n        /* \"#utility.yul\":2684:2693   */\n      dup4\n        /* \"#utility.yul\":2675:2682   */\n      dup6\n        /* \"#utility.yul\":2671:2694   */\n      sub\n        /* \"#utility.yul\":2667:2699   */\n      slt\n        /* \"#utility.yul\":2664:2783   */\n      iszero\n      tag_225\n      jumpi\n        /* \"#utility.yul\":2702:2781   */\n      tag_226\n      tag_164\n      jump\t// in\n    tag_226:\n        /* \"#utility.yul\":2664:2783   */\n    tag_225:\n        /* \"#utility.yul\":2822:2823   */\n      0x00\n        /* \"#utility.yul\":2847:2900   */\n      tag_227\n        /* \"#utility.yul\":2892:2899   */\n      dup6\n        /* \"#utility.yul\":2883:2889   */\n      dup3\n        /* \"#utility.yul\":2872:2881   */\n      dup7\n        /* \"#utility.yul\":2868:2890   */\n      add\n        /* \"#utility.yul\":2847:2900   */\n      tag_169\n      jump\t// in\n    tag_227:\n        /* \"#utility.yul\":2837:2900   */\n      swap3\n      pop\n        /* \"#utility.yul\":2793:2910   */\n      pop\n        /* \"#utility.yul\":2949:2951   */\n      0x20\n        /* \"#utility.yul\":2975:3028   */\n      tag_228\n        /* \"#utility.yul\":3020:3027   */\n      dup6\n        /* \"#utility.yul\":3011:3017   */\n      dup3\n        /* \"#utility.yul\":3000:3009   */\n      dup7\n        /* \"#utility.yul\":2996:3018   */\n      add\n        /* \"#utility.yul\":2975:3028   */\n      tag_169\n      jump\t// in\n    tag_228:\n        /* \"#utility.yul\":2965:3028   */\n      swap2\n      pop\n        /* \"#utility.yul\":2920:3038   */\n      pop\n        /* \"#utility.yul\":2571:3045   */\n      swap3\n      pop\n      swap3\n      swap1\n      pop\n      jump\t// out\n        /* \"#utility.yul\":3051:3231   */\n    tag_170:\n        /* \"#utility.yul\":3099:3176   */\n      0x4e487b7100000000000000000000000000000000000000000000000000000000\n        /* \"#utility.yul\":3096:3097   */\n      0x00\n        /* \"#utility.yul\":3089:3177   */\n      mstore\n        /* \"#utility.yul\":3196:3200   */\n      0x11\n        /* \"#utility.yul\":3193:3194   */\n      0x04\n        /* \"#utility.yul\":3186:3201   */\n      mstore\n        /* \"#utility.yul\":3220:3224   */\n      0x24\n        /* \"#utility.yul\":3217:3218   */\n      0x00\n        /* \"#utility.yul\":3210:3225   */\n      revert\n        /* \"#utility.yul\":3237:3647   */\n    tag_53:\n        /* \"#utility.yul\":3277:3284   */\n      0x00\n        /* \"#utility.yul\":3300:3320   */\n      tag_231\n        /* \"#utility.yul\":3318:3319   */\n      dup3\n        /* \"#utility.yul\":3300:3320   */\n      tag_161\n      jump\t// in\n    tag_231:\n        /* \"#utility.yul\":3295:3320   */\n      swap2\n      pop\n        /* \"#utility.yul\":3334:3354   */\n      tag_232\n        /* \"#utility.yul\":3352:3353   */\n      dup4\n        /* \"#utility.yul\":3334:3354   */\n      tag_161\n      jump\t// in\n    tag_232:\n        /* \"#utility.yul\":3329:3354   */\n      swap3\n      pop\n        /* \"#utility.yul\":3389:3390   */\n      dup3\n        /* \"#utility.yul\":3386:3387   */\n      dup3\n        /* \"#utility.yul\":3382:3391   */\n      mul\n        /* \"#utility.yul\":3411:3441   */\n      tag_233\n        /* \"#utility.yul\":3429:3440   */\n      dup2\n        /* \"#utility.yul\":3411:3441   */\n      tag_161\n      jump\t// in\n    tag_233:\n        /* \"#utility.yul\":3400:3441   */\n      swap2\n      pop\n        /* \"#utility.yul\":3590:3591   */\n      dup3\n        /* \"#utility.yul\":3581:3588   */\n      dup3\n        /* \"#utility.yul\":3577:3592   */\n      div\n        /* \"#utility.yul\":3574:3575   */\n      dup5\n        /* \"#utility.yul\":3571:3593   */\n      eq\n        /* \"#utility.yul\":3551:3552   */\n      dup4\n        /* \"#utility.yul\":3544:3553   */\n      iszero\n        /* \"#utility.yul\":3524:3607   */\n      or\n        /* \"#utility.yul\":3501:3640   */\n      tag_234\n      jumpi\n        /* \"#utility.yul\":3620:3638   */\n      tag_235\n      tag_170\n      jump\t// in\n    tag_235:\n        /* \"#utility.yul\":3501:3640   */\n    tag_234:\n        /* \"#utility.yul\":3285:3647   */\n      pop\n        /* \"#utility.yul\":3237:3647   */\n      swap3\n      swap2\n      pop\n      pop\n      jump\t// out\n        /* \"#utility.yul\":3653:3833   */\n    tag_171:\n        /* \"#utility.yul\":3701:3778   */\n      0x4e487b7100000000000000000000000000000000000000000000000000000000\n        /* \"#utility.yul\":3698:3699   */\n      0x00\n        /* \"#utility.yul\":3691:3779   */\n      mstore\n        /* \"#utility.yul\":3798:3802   */\n      0x12\n        /* \"#utility.yul\":3795:3796   */\n      0x04\n        /* \"#utility.yul\":3788:3803   */\n      mstore\n        /* \"#utility.yul\":3822:3826   */\n      0x24\n        /* \"#utility.yul\":3819:3820   */\n      0x00\n        /* \"#utility.yul\":3812:3827   */\n      revert\n        /* \"#utility.yul\":3839:4024   */\n    tag_55:\n        /* \"#utility.yul\":3879:3880   */\n      0x00\n        /* \"#utility.yul\":3896:3916   */\n      tag_238\n        /* \"#utility.yul\":3914:3915   */\n      dup3\n        /* \"#utility.yul\":3896:3916   */\n      tag_161\n      jump\t// in\n    tag_238:\n        /* \"#utility.yul\":3891:3916   */\n      swap2\n      pop\n        /* \"#utility.yul\":3930:3950   */\n      tag_239\n        /* \"#utility.yul\":3948:3949   */\n      dup4\n        /* \"#utility.yul\":3930:3950   */\n      tag_161\n      jump\t// in\n    tag_239:\n        /* \"#utility.yul\":3925:3950   */\n      swap3\n      pop\n        /* \"#utility.yul\":3969:3970   */\n      dup3\n        /* \"#utility.yul\":3959:3994   */\n      tag_240\n      jumpi\n        /* \"#utility.yul\":3974:3992   */\n      tag_241\n      tag_171\n      jump\t// in\n    tag_241:\n        /* \"#utility.yul\":3959:3994   */\n    tag_240:\n        /* \"#utility.yul\":4016:4017   */\n      dup3\n        /* \"#utility.yul\":4013:4014   */\n      dup3\n        /* \"#utility.yul\":4009:4018   */\n      div\n        /* \"#utility.yul\":4004:4018   */\n      swap1\n      pop\n        /* \"#utility.yul\":3839:4024   */\n      swap3\n      swap2\n      pop\n      pop\n      jump\t// out\n        /* \"#utility.yul\":4030:4199   */\n    tag_172:\n        /* \"#utility.yul\":4114:4125   */\n      0x00\n        /* \"#utility.yul\":4148:4154   */\n      dup3\n        /* \"#utility.yul\":4143:4146   */\n      dup3\n        /* \"#utility.yul\":4136:4155   */\n      mstore\n        /* \"#utility.yul\":4188:4192   */\n      0x20\n        /* \"#utility.yul\":4183:4186   */\n      dup3\n        /* \"#utility.yul\":4179:4193   */\n      add\n        /* \"#utility.yul\":4164:4193   */\n      swap1\n      pop\n        /* \"#utility.yul\":4030:4199   */\n      swap3\n      swap2\n      pop\n      pop\n      jump\t// out\n        /* \"#utility.yul\":4205:4376   */\n    tag_173:\n        /* \"#utility.yul\":4345:4368   */\n      0x496e76616c696420746f6b656e20616464726573730000000000000000000000\n        /* \"#utility.yul\":4341:4342   */\n      0x00\n        /* \"#utility.yul\":4333:4339   */\n      dup3\n        /* \"#utility.yul\":4329:4343   */\n      add\n        /* \"#utility.yul\":4322:4369   */\n      mstore\n        /* \"#utility.yul\":4205:4376   */\n      pop\n      jump\t// out\n        /* \"#utility.yul\":4382:4748   */\n    tag_174:\n        /* \"#utility.yul\":4524:4527   */\n      0x00\n        /* \"#utility.yul\":4545:4612   */\n      tag_245\n        /* \"#utility.yul\":4609:4611   */\n      0x15\n        /* \"#utility.yul\":4604:4607   */\n      dup4\n        /* \"#utility.yul\":4545:4612   */\n      tag_172\n      jump\t// in\n    tag_245:\n        /* \"#utility.yul\":4538:4612   */\n      swap2\n      pop\n        /* \"#utility.yul\":4621:4714   */\n      tag_246\n        /* \"#utility.yul\":4710:4713   */\n      dup3\n        /* \"#utility.yul\":4621:4714   */\n      tag_173\n      jump\t// in\n    tag_246:\n        /* \"#utility.yul\":4739:4741   */\n      0x20\n        /* \"#utility.yul\":4734:4737   */\n      dup3\n        /* \"#utility.yul\":4730:4742   */\n      add\n        /* \"#utility.yul\":4723:4742   */\n      swap1\n      pop\n        /* \"#utility.yul\":4382:4748   */\n      swap2\n      swap1\n      pop\n      jump\t// out\n        /* \"#utility.yul\":4754:5173   */\n    tag_62:\n        /* \"#utility.yul\":4920:4924   */\n      0x00\n        /* \"#utility.yul\":4958:4960   */\n      0x20\n        /* \"#utility.yul\":4947:4956   */\n      dup3\n        /* \"#utility.yul\":4943:4961   */\n      add\n        /* \"#utility.yul\":4935:4961   */\n      swap1\n      pop\n        /* \"#utility.yul\":5007:5016   */\n      dup2\n        /* \"#utility.yul\":5001:5005   */\n      dup2\n        /* \"#utility.yul\":4997:5017   */\n      sub\n        /* \"#utility.yul\":4993:4994   */\n      0x00\n        /* \"#utility.yul\":4982:4991   */\n      dup4\n        /* \"#utility.yul\":4978:4995   */\n      add\n        /* \"#utility.yul\":4971:5018   */\n      mstore\n        /* \"#utility.yul\":5035:5166   */\n      tag_248\n        /* \"#utility.yul\":5161:5165   */\n      dup2\n        /* \"#utility.yul\":5035:5166   */\n      tag_174\n      jump\t// in\n    tag_248:\n        /* \"#utility.yul\":5027:5166   */\n      swap1\n      pop\n        /* \"#utility.yul\":4754:5173   */\n      swap2\n      swap1\n      pop\n      jump\t// out\n        /* \"#utility.yul\":5179:5401   */\n    tag_175:\n        /* \"#utility.yul\":5319:5353   */\n      0x496e70757420616d6f756e74206d757374206265206772656174657220746861\n        /* \"#utility.yul\":5315:5316   */\n      0x00\n        /* \"#utility.yul\":5307:5313   */\n      dup3\n        /* \"#utility.yul\":5303:5317   */\n      add\n        /* \"#utility.yul\":5296:5354   */\n      mstore\n        /* \"#utility.yul\":5388:5393   */\n      0x6e20300000000000000000000000000000000000000000000000000000000000\n        /* \"#utility.yul\":5383:5385   */\n      0x20\n        /* \"#utility.yul\":5375:5381   */\n      dup3\n        /* \"#utility.yul\":5371:5386   */\n      add\n        /* \"#utility.yul\":5364:5394   */\n      mstore\n        /* \"#utility.yul\":5179:5401   */\n      pop\n      jump\t// out\n        /* \"#utility.yul\":5407:5773   */\n    tag_176:\n        /* \"#utility.yul\":5549:5552   */\n      0x00\n        /* \"#utility.yul\":5570:5637   */\n      tag_251\n        /* \"#utility.yul\":5634:5636   */\n      0x23\n        /* \"#utility.yul\":5629:5632   */\n      dup4\n        /* \"#utility.yul\":5570:5637   */\n      tag_172\n      jump\t// in\n    tag_251:\n        /* \"#utility.yul\":5563:5637   */\n      swap2\n      pop\n        /* \"#utility.yul\":5646:5739   */\n      tag_252\n        /* \"#utility.yul\":5735:5738   */\n      dup3\n        /* \"#utility.yul\":5646:5739   */\n      tag_175\n      jump\t// in\n    tag_252:\n        /* \"#utility.yul\":5764:5766   */\n      0x40\n        /* \"#utility.yul\":5759:5762   */\n      dup3\n        /* \"#utility.yul\":5755:5767   */\n      add\n        /* \"#utility.yul\":5748:5767   */\n      swap1\n      pop\n        /* \"#utility.yul\":5407:5773   */\n      swap2\n      swap1\n      pop\n      jump\t// out\n        /* \"#utility.yul\":5779:6198   */\n    tag_66:\n        /* \"#utility.yul\":5945:5949   */\n      0x00\n        /* \"#utility.yul\":5983:5985   */\n      0x20\n        /* \"#utility.yul\":5972:5981   */\n      dup3\n        /* \"#utility.yul\":5968:5986   */\n      add\n        /* \"#utility.yul\":5960:5986   */\n      swap1\n      pop\n        /* \"#utility.yul\":6032:6041   */\n      dup2\n        /* \"#utility.yul\":6026:6030   */\n      dup2\n        /* \"#utility.yul\":6022:6042   */\n      sub\n        /* \"#utility.yul\":6018:6019   */\n      0x00\n        /* \"#utility.yul\":6007:6016   */\n      dup4\n        /* \"#utility.yul\":6003:6020   */\n      add\n        /* \"#utility.yul\":5996:6043   */\n      mstore\n        /* \"#utility.yul\":6060:6191   */\n      tag_254\n        /* \"#utility.yul\":6186:6190   */\n      dup2\n        /* \"#utility.yul\":6060:6191   */\n      tag_176\n      jump\t// in\n    tag_254:\n        /* \"#utility.yul\":6052:6191   */\n      swap1\n      pop\n        /* \"#utility.yul\":5779:6198   */\n      swap2\n      swap1\n      pop\n      jump\t// out\n        /* \"#utility.yul\":6204:6380   */\n    tag_177:\n        /* \"#utility.yul\":6344:6372   */\n      0x496e73756666696369656e74206f757470757420616d6f756e74000000000000\n        /* \"#utility.yul\":6340:6341   */\n      0x00\n        /* \"#utility.yul\":6332:6338   */\n      dup3\n        /* \"#utility.yul\":6328:6342   */\n      add\n        /* \"#utility.yul\":6321:6373   */\n      mstore\n        /* \"#utility.yul\":6204:6380   */\n      pop\n      jump\t// out\n        /* \"#utility.yul\":6386:6752   */\n    tag_178:\n        /* \"#utility.yul\":6528:6531   */\n      0x00\n        /* \"#utility.yul\":6549:6616   */\n      tag_257\n        /* \"#utility.yul\":6613:6615   */\n      0x1a\n        /* \"#utility.yul\":6608:6611   */\n      dup4\n        /* \"#utility.yul\":6549:6616   */\n      tag_172\n      jump\t// in\n    tag_257:\n        /* \"#utility.yul\":6542:6616   */\n      swap2\n      pop\n        /* \"#utility.yul\":6625:6718   */\n      tag_258\n        /* \"#utility.yul\":6714:6717   */\n      dup3\n        /* \"#utility.yul\":6625:6718   */\n      tag_177\n      jump\t// in\n    tag_258:\n        /* \"#utility.yul\":6743:6745   */\n      0x20\n        /* \"#utility.yul\":6738:6741   */\n      dup3\n        /* \"#utility.yul\":6734:6746   */\n      add\n        /* \"#utility.yul\":6727:6746   */\n      swap1\n      pop\n        /* \"#utility.yul\":6386:6752   */\n      swap2\n      swap1\n      pop\n      jump\t// out\n        /* \"#utility.yul\":6758:7177   */\n    tag_71:\n        /* \"#utility.yul\":6924:6928   */\n      0x00\n        /* \"#utility.yul\":6962:6964   */\n      0x20\n        /* \"#utility.yul\":6951:6960   */\n      dup3\n        /* \"#utility.yul\":6947:6965   */\n      add\n        /* \"#utility.yul\":6939:6965   */\n      swap1\n      pop\n        /* \"#utility.yul\":7011:7020   */\n      dup2\n        /* \"#utility.yul\":7005:7009   */\n      dup2\n        /* \"#utility.yul\":7001:7021   */\n      sub\n        /* \"#utility.yul\":6997:6998   */\n      0x00\n        /* \"#utility.yul\":6986:6995   */\n      dup4\n        /* \"#utility.yul\":6982:6999   */\n      add\n        /* \"#utility.yul\":6975:7022   */\n      mstore\n        /* \"#utility.yul\":7039:7170   */\n      tag_260\n        /* \"#utility.yul\":7165:7169   */\n      dup2\n        /* \"#utility.yul\":7039:7170   */\n      tag_178\n      jump\t// in\n    tag_260:\n        /* \"#utility.yul\":7031:7170   */\n      swap1\n      pop\n        /* \"#utility.yul\":6758:7177   */\n      swap2\n      swap1\n      pop\n      jump\t// out\n        /* \"#utility.yul\":7183:7374   */\n    tag_73:\n        /* \"#utility.yul\":7223:7226   */\n      0x00\n        /* \"#utility.yul\":7242:7262   */\n      tag_262\n        /* \"#utility.yul\":7260:7261   */\n      dup3\n        /* \"#utility.yul\":7242:7262   */\n      tag_161\n      jump\t// in\n    tag_262:\n        /* \"#utility.yul\":7237:7262   */\n      swap2\n      pop\n        /* \"#utility.yul\":7276:7296   */\n      tag_263\n        /* \"#utility.yul\":7294:7295   */\n      dup4\n        /* \"#utility.yul\":7276:7296   */\n      tag_161\n      jump\t// in\n    tag_263:\n        /* \"#utility.yul\":7271:7296   */\n      swap3\n      pop\n        /* \"#utility.yul\":7319:7320   */\n      dup3\n        /* \"#utility.yul\":7316:7317   */\n      dup3\n        /* \"#utility.yul\":7312:7321   */\n      add\n        /* \"#utility.yul\":7305:7321   */\n      swap1\n      pop\n        /* \"#utility.yul\":7340:7343   */\n      dup1\n        /* \"#utility.yul\":7337:7338   */\n      dup3\n        /* \"#utility.yul\":7334:7344   */\n      gt\n        /* \"#utility.yul\":7331:7367   */\n      iszero\n      tag_264\n      jumpi\n        /* \"#utility.yul\":7347:7365   */\n      tag_265\n      tag_170\n      jump\t// in\n    tag_265:\n        /* \"#utility.yul\":7331:7367   */\n    tag_264:\n        /* \"#utility.yul\":7183:7374   */\n      swap3\n      swap2\n      pop\n      pop\n      jump\t// out\n        /* \"#utility.yul\":7380:7574   */\n    tag_75:\n        /* \"#utility.yul\":7420:7424   */\n      0x00\n        /* \"#utility.yul\":7440:7460   */\n      tag_267\n        /* \"#utility.yul\":7458:7459   */\n      dup3\n        /* \"#utility.yul\":7440:7460   */\n      tag_161\n      jump\t// in\n    tag_267:\n        /* \"#utility.yul\":7435:7460   */\n      swap2\n      pop\n        /* \"#utility.yul\":7474:7494   */\n      tag_268\n        /* \"#utility.yul\":7492:7493   */\n      dup4\n        /* \"#utility.yul\":7474:7494   */\n      tag_161\n      jump\t// in\n    tag_268:\n        /* \"#utility.yul\":7469:7494   */\n      swap3\n      pop\n        /* \"#utility.yul\":7518:7519   */\n      dup3\n        /* \"#utility.yul\":7515:7516   */\n      dup3\n        /* \"#utility.yul\":7511:7520   */\n      sub\n        /* \"#utility.yul\":7503:7520   */\n      swap1\n      pop\n        /* \"#utility.yul\":7542:7543   */\n      dup2\n        /* \"#utility.yul\":7536:7540   */\n      dup2\n        /* \"#utility.yul\":7533:7544   */\n      gt\n        /* \"#utility.yul\":7530:7567   */\n      iszero\n      tag_269\n      jumpi\n        /* \"#utility.yul\":7547:7565   */\n      tag_270\n      tag_170\n      jump\t// in\n    tag_270:\n        /* \"#utility.yul\":7530:7567   */\n    tag_269:\n        /* \"#utility.yul\":7380:7574   */\n      swap3\n      swap2\n      pop\n      pop\n      jump\t// out\n        /* \"#utility.yul\":7580:8022   */\n    tag_77:\n        /* \"#utility.yul\":7729:7733   */\n      0x00\n        /* \"#utility.yul\":7767:7769   */\n      0x60\n        /* \"#utility.yul\":7756:7765   */\n      dup3\n        /* \"#utility.yul\":7752:7770   */\n      add\n        /* \"#utility.yul\":7744:7770   */\n      swap1\n      pop\n        /* \"#utility.yul\":7780:7851   */\n      tag_272\n        /* \"#utility.yul\":7848:7849   */\n      0x00\n        /* \"#utility.yul\":7837:7846   */\n      dup4\n        /* \"#utility.yul\":7833:7850   */\n      add\n        /* \"#utility.yul\":7824:7830   */\n      dup7\n        /* \"#utility.yul\":7780:7851   */\n      tag_160\n      jump\t// in\n    tag_272:\n        /* \"#utility.yul\":7861:7933   */\n      tag_273\n        /* \"#utility.yul\":7929:7931   */\n      0x20\n        /* \"#utility.yul\":7918:7927   */\n      dup4\n        /* \"#utility.yul\":7914:7932   */\n      add\n        /* \"#utility.yul\":7905:7911   */\n      dup6\n        /* \"#utility.yul\":7861:7933   */\n      tag_160\n      jump\t// in\n    tag_273:\n        /* \"#utility.yul\":7943:8015   */\n      tag_274\n        /* \"#utility.yul\":8011:8013   */\n      0x40\n        /* \"#utility.yul\":8000:8009   */\n      dup4\n        /* \"#utility.yul\":7996:8014   */\n      add\n        /* \"#utility.yul\":7987:7993   */\n      dup5\n        /* \"#utility.yul\":7943:8015   */\n      tag_162\n      jump\t// in\n    tag_274:\n        /* \"#utility.yul\":7580:8022   */\n      swap5\n      swap4\n      pop\n      pop\n      pop\n      pop\n      jump\t// out\n        /* \"#utility.yul\":8028:8118   */\n    tag_179:\n        /* \"#utility.yul\":8062:8069   */\n      0x00\n        /* \"#utility.yul\":8105:8110   */\n      dup2\n        /* \"#utility.yul\":8098:8111   */\n      iszero\n        /* \"#utility.yul\":8091:8112   */\n      iszero\n        /* \"#utility.yul\":8080:8112   */\n      swap1\n      pop\n        /* \"#utility.yul\":8028:8118   */\n      swap2\n      swap1\n      pop\n      jump\t// out\n        /* \"#utility.yul\":8124:8240   */\n    tag_180:\n        /* \"#utility.yul\":8194:8215   */\n      tag_277\n        /* \"#utility.yul\":8209:8214   */\n      dup2\n        /* \"#utility.yul\":8194:8215   */\n      tag_179\n      jump\t// in\n    tag_277:\n        /* \"#utility.yul\":8187:8192   */\n      dup2\n        /* \"#utility.yul\":8184:8216   */\n      eq\n        /* \"#utility.yul\":8174:8234   */\n      tag_278\n      jumpi\n        /* \"#utility.yul\":8230:8231   */\n      0x00\n        /* \"#utility.yul\":8227:8228   */\n      dup1\n        /* \"#utility.yul\":8220:8232   */\n      revert\n        /* \"#utility.yul\":8174:8234   */\n    tag_278:\n        /* \"#utility.yul\":8124:8240   */\n      pop\n      jump\t// out\n        /* \"#utility.yul\":8246:8383   */\n    tag_181:\n        /* \"#utility.yul\":8300:8305   */\n      0x00\n        /* \"#utility.yul\":8331:8337   */\n      dup2\n        /* \"#utility.yul\":8325:8338   */\n      mload\n        /* \"#utility.yul\":8316:8338   */\n      swap1\n      pop\n        /* \"#utility.yul\":8347:8377   */\n      tag_280\n        /* \"#utility.yul\":8371:8376   */\n      dup2\n        /* \"#utility.yul\":8347:8377   */\n      tag_180\n      jump\t// in\n    tag_280:\n        /* \"#utility.yul\":8246:8383   */\n      swap3\n      swap2\n      pop\n      pop\n      jump\t// out\n        /* \"#utility.yul\":8389:8734   */\n    tag_81:\n        /* \"#utility.yul\":8456:8462   */\n      0x00\n        /* \"#utility.yul\":8505:8507   */\n      0x20\n        /* \"#utility.yul\":8493:8502   */\n      dup3\n        /* \"#utility.yul\":8484:8491   */\n      dup5\n        /* \"#utility.yul\":8480:8503   */\n      sub\n        /* \"#utility.yul\":8476:8508   */\n      slt\n        /* \"#utility.yul\":8473:8592   */\n      iszero\n      tag_282\n      jumpi\n        /* \"#utility.yul\":8511:8590   */\n      tag_283\n      tag_164\n      jump\t// in\n    tag_283:\n        /* \"#utility.yul\":8473:8592   */\n    tag_282:\n        /* \"#utility.yul\":8631:8632   */\n      0x00\n        /* \"#utility.yul\":8656:8717   */\n      tag_284\n        /* \"#utility.yul\":8709:8716   */\n      dup5\n        /* \"#utility.yul\":8700:8706   */\n      dup3\n        /* \"#utility.yul\":8689:8698   */\n      dup6\n        /* \"#utility.yul\":8685:8707   */\n      add\n        /* \"#utility.yul\":8656:8717   */\n      tag_181\n      jump\t// in\n    tag_284:\n        /* \"#utility.yul\":8646:8717   */\n      swap2\n      pop\n        /* \"#utility.yul\":8602:8727   */\n      pop\n        /* \"#utility.yul\":8389:8734   */\n      swap3\n      swap2\n      pop\n      pop\n      jump\t// out\n        /* \"#utility.yul\":8740:9072   */\n    tag_83:\n        /* \"#utility.yul\":8861:8865   */\n      0x00\n        /* \"#utility.yul\":8899:8901   */\n      0x40\n        /* \"#utility.yul\":8888:8897   */\n      dup3\n        /* \"#utility.yul\":8884:8902   */\n      add\n        /* \"#utility.yul\":8876:8902   */\n      swap1\n      pop\n        /* \"#utility.yul\":8912:8983   */\n      tag_286\n        /* \"#utility.yul\":8980:8981   */\n      0x00\n        /* \"#utility.yul\":8969:8978   */\n      dup4\n        /* \"#utility.yul\":8965:8982   */\n      add\n        /* \"#utility.yul\":8956:8962   */\n      dup6\n        /* \"#utility.yul\":8912:8983   */\n      tag_160\n      jump\t// in\n    tag_286:\n        /* \"#utility.yul\":8993:9065   */\n      tag_287\n        /* \"#utility.yul\":9061:9063   */\n      0x20\n        /* \"#utility.yul\":9050:9059   */\n      dup4\n        /* \"#utility.yul\":9046:9064   */\n      add\n        /* \"#utility.yul\":9037:9043   */\n      dup5\n        /* \"#utility.yul\":8993:9065   */\n      tag_162\n      jump\t// in\n    tag_287:\n        /* \"#utility.yul\":8740:9072   */\n      swap4\n      swap3\n      pop\n      pop\n      pop\n      jump\t// out\n        /* \"#utility.yul\":9078:9410   */\n    tag_88:\n        /* \"#utility.yul\":9199:9203   */\n      0x00\n        /* \"#utility.yul\":9237:9239   */\n      0x40\n        /* \"#utility.yul\":9226:9235   */\n      dup3\n        /* \"#utility.yul\":9222:9240   */\n      add\n        /* \"#utility.yul\":9214:9240   */\n      swap1\n      pop\n        /* \"#utility.yul\":9250:9321   */\n      tag_289\n        /* \"#utility.yul\":9318:9319   */\n      0x00\n        /* \"#utility.yul\":9307:9316   */\n      dup4\n        /* \"#utility.yul\":9303:9320   */\n      add\n        /* \"#utility.yul\":9294:9300   */\n      dup6\n        /* \"#utility.yul\":9250:9321   */\n      tag_162\n      jump\t// in\n    tag_289:\n        /* \"#utility.yul\":9331:9403   */\n      tag_290\n        /* \"#utility.yul\":9399:9401   */\n      0x20\n        /* \"#utility.yul\":9388:9397   */\n      dup4\n        /* \"#utility.yul\":9384:9402   */\n      add\n        /* \"#utility.yul\":9375:9381   */\n      dup5\n        /* \"#utility.yul\":9331:9403   */\n      tag_162\n      jump\t// in\n    tag_290:\n        /* \"#utility.yul\":9078:9410   */\n      swap4\n      swap3\n      pop\n      pop\n      pop\n      jump\t// out\n        /* \"#utility.yul\":9416:9588   */\n    tag_182:\n        /* \"#utility.yul\":9556:9580   */\n      0x4e6f742074686520636f6e7472616374206f776e657200000000000000000000\n        /* \"#utility.yul\":9552:9553   */\n      0x00\n        /* \"#utility.yul\":9544:9550   */\n      dup3\n        /* \"#utility.yul\":9540:9554   */\n      add\n        /* \"#utility.yul\":9533:9581   */\n      mstore\n        /* \"#utility.yul\":9416:9588   */\n      pop\n      jump\t// out\n        /* \"#utility.yul\":9594:9960   */\n    tag_183:\n        /* \"#utility.yul\":9736:9739   */\n      0x00\n        /* \"#utility.yul\":9757:9824   */\n      tag_293\n        /* \"#utility.yul\":9821:9823   */\n      0x16\n        /* \"#utility.yul\":9816:9819   */\n      dup4\n        /* \"#utility.yul\":9757:9824   */\n      tag_172\n      jump\t// in\n    tag_293:\n        /* \"#utility.yul\":9750:9824   */\n      swap2\n      pop\n        /* \"#utility.yul\":9833:9926   */\n      tag_294\n        /* \"#utility.yul\":9922:9925   */\n      dup3\n        /* \"#utility.yul\":9833:9926   */\n      tag_182\n      jump\t// in\n    tag_294:\n        /* \"#utility.yul\":9951:9953   */\n      0x20\n        /* \"#utility.yul\":9946:9949   */\n      dup3\n        /* \"#utility.yul\":9942:9954   */\n      add\n        /* \"#utility.yul\":9935:9954   */\n      swap1\n      pop\n        /* \"#utility.yul\":9594:9960   */\n      swap2\n      swap1\n      pop\n      jump\t// out\n        /* \"#utility.yul\":9966:10385   */\n    tag_92:\n        /* \"#utility.yul\":10132:10136   */\n      0x00\n        /* \"#utility.yul\":10170:10172   */\n      0x20\n        /* \"#utility.yul\":10159:10168   */\n      dup3\n        /* \"#utility.yul\":10155:10173   */\n      add\n        /* \"#utility.yul\":10147:10173   */\n      swap1\n      pop\n        /* \"#utility.yul\":10219:10228   */\n      dup2\n        /* \"#utility.yul\":10213:10217   */\n      dup2\n        /* \"#utility.yul\":10209:10229   */\n      sub\n        /* \"#utility.yul\":10205:10206   */\n      0x00\n        /* \"#utility.yul\":10194:10203   */\n      dup4\n        /* \"#utility.yul\":10190:10207   */\n      add\n        /* \"#utility.yul\":10183:10230   */\n      mstore\n        /* \"#utility.yul\":10247:10378   */\n      tag_296\n        /* \"#utility.yul\":10373:10377   */\n      dup2\n        /* \"#utility.yul\":10247:10378   */\n      tag_183\n      jump\t// in\n    tag_296:\n        /* \"#utility.yul\":10239:10378   */\n      swap1\n      pop\n        /* \"#utility.yul\":9966:10385   */\n      swap2\n      swap1\n      pop\n      jump\t// out\n        /* \"#utility.yul\":10391:10571   */\n    tag_184:\n        /* \"#utility.yul\":10531:10563   */\n      0x416d6f756e7473206d7573742062652067726561746572207468616e20300000\n        /* \"#utility.yul\":10527:10528   */\n      0x00\n        /* \"#utility.yul\":10519:10525   */\n      dup3\n        /* \"#utility.yul\":10515:10529   */\n      add\n        /* \"#utility.yul\":10508:10564   */\n      mstore\n        /* \"#utility.yul\":10391:10571   */\n      pop\n      jump\t// out\n        /* \"#utility.yul\":10577:10943   */\n    tag_185:\n        /* \"#utility.yul\":10719:10722   */\n      0x00\n        /* \"#utility.yul\":10740:10807   */\n      tag_299\n        /* \"#utility.yul\":10804:10806   */\n      0x1e\n        /* \"#utility.yul\":10799:10802   */\n      dup4\n        /* \"#utility.yul\":10740:10807   */\n      tag_172\n      jump\t// in\n    tag_299:\n        /* \"#utility.yul\":10733:10807   */\n      swap2\n      pop\n        /* \"#utility.yul\":10816:10909   */\n      tag_300\n        /* \"#utility.yul\":10905:10908   */\n      dup3\n        /* \"#utility.yul\":10816:10909   */\n      tag_184\n      jump\t// in\n    tag_300:\n        /* \"#utility.yul\":10934:10936   */\n      0x20\n        /* \"#utility.yul\":10929:10932   */\n      dup3\n        /* \"#utility.yul\":10925:10937   */\n      add\n        /* \"#utility.yul\":10918:10937   */\n      swap1\n      pop\n        /* \"#utility.yul\":10577:10943   */\n      swap2\n      swap1\n      pop\n      jump\t// out\n        /* \"#utility.yul\":10949:11368   */\n    tag_97:\n        /* \"#utility.yul\":11115:11119   */\n      0x00\n        /* \"#utility.yul\":11153:11155   */\n      0x20\n        /* \"#utility.yul\":11142:11151   */\n      dup3\n        /* \"#utility.yul\":11138:11156   */\n      add\n        /* \"#utility.yul\":11130:11156   */\n      swap1\n      pop\n        /* \"#utility.yul\":11202:11211   */\n      dup2\n        /* \"#utility.yul\":11196:11200   */\n      dup2\n        /* \"#utility.yul\":11192:11212   */\n      sub\n        /* \"#utility.yul\":11188:11189   */\n      0x00\n        /* \"#utility.yul\":11177:11186   */\n      dup4\n        /* \"#utility.yul\":11173:11190   */\n      add\n        /* \"#utility.yul\":11166:11213   */\n      mstore\n        /* \"#utility.yul\":11230:11361   */\n      tag_302\n        /* \"#utility.yul\":11356:11360   */\n      dup2\n        /* \"#utility.yul\":11230:11361   */\n      tag_185\n      jump\t// in\n    tag_302:\n        /* \"#utility.yul\":11222:11361   */\n      swap1\n      pop\n        /* \"#utility.yul\":10949:11368   */\n      swap2\n      swap1\n      pop\n      jump\t// out\n        /* \"#utility.yul\":11374:11546   */\n    tag_186:\n        /* \"#utility.yul\":11514:11538   */\n      0x496e73756666696369656e74206c697175696469747900000000000000000000\n        /* \"#utility.yul\":11510:11511   */\n      0x00\n        /* \"#utility.yul\":11502:11508   */\n      dup3\n        /* \"#utility.yul\":11498:11512   */\n      add\n        /* \"#utility.yul\":11491:11539   */\n      mstore\n        /* \"#utility.yul\":11374:11546   */\n      pop\n      jump\t// out\n        /* \"#utility.yul\":11552:11918   */\n    tag_187:\n        /* \"#utility.yul\":11694:11697   */\n      0x00\n        /* \"#utility.yul\":11715:11782   */\n      tag_305\n        /* \"#utility.yul\":11779:11781   */\n      0x16\n        /* \"#utility.yul\":11774:11777   */\n      dup4\n        /* \"#utility.yul\":11715:11782   */\n      tag_172\n      jump\t// in\n    tag_305:\n        /* \"#utility.yul\":11708:11782   */\n      swap2\n      pop\n        /* \"#utility.yul\":11791:11884   */\n      tag_306\n        /* \"#utility.yul\":11880:11883   */\n      dup3\n        /* \"#utility.yul\":11791:11884   */\n      tag_186\n      jump\t// in\n    tag_306:\n        /* \"#utility.yul\":11909:11911   */\n      0x20\n        /* \"#utility.yul\":11904:11907   */\n      dup3\n        /* \"#utility.yul\":11900:11912   */\n      add\n        /* \"#utility.yul\":11893:11912   */\n      swap1\n      pop\n        /* \"#utility.yul\":11552:11918   */\n      swap2\n      swap1\n      pop\n      jump\t// out\n        /* \"#utility.yul\":11924:12343   */\n    tag_119:\n        /* \"#utility.yul\":12090:12094   */\n      0x00\n        /* \"#utility.yul\":12128:12130   */\n      0x20\n        /* \"#utility.yul\":12117:12126   */\n      dup3\n        /* \"#utility.yul\":12113:12131   */\n      add\n        /* \"#utility.yul\":12105:12131   */\n      swap1\n      pop\n        /* \"#utility.yul\":12177:12186   */\n      dup2\n        /* \"#utility.yul\":12171:12175   */\n      dup2\n        /* \"#utility.yul\":12167:12187   */\n      sub\n        /* \"#utility.yul\":12163:12164   */\n      0x00\n        /* \"#utility.yul\":12152:12161   */\n      dup4\n        /* \"#utility.yul\":12148:12165   */\n      add\n        /* \"#utility.yul\":12141:12188   */\n      mstore\n        /* \"#utility.yul\":12205:12336   */\n      tag_308\n        /* \"#utility.yul\":12331:12335   */\n      dup2\n        /* \"#utility.yul\":12205:12336   */\n      tag_187\n      jump\t// in\n    tag_308:\n        /* \"#utility.yul\":12197:12336   */\n      swap1\n      pop\n        /* \"#utility.yul\":11924:12343   */\n      swap2\n      swap1\n      pop\n      jump\t// out\n        /* \"#utility.yul\":12349:12515   */\n    tag_188:\n        /* \"#utility.yul\":12489:12507   */\n      0x496e76616c696420726573657276657300000000000000000000000000000000\n        /* \"#utility.yul\":12485:12486   */\n      0x00\n        /* \"#utility.yul\":12477:12483   */\n      dup3\n        /* \"#utility.yul\":12473:12487   */\n      add\n        /* \"#utility.yul\":12466:12508   */\n      mstore\n        /* \"#utility.yul\":12349:12515   */\n      pop\n      jump\t// out\n        /* \"#utility.yul\":12521:12887   */\n    tag_189:\n        /* \"#utility.yul\":12663:12666   */\n      0x00\n        /* \"#utility.yul\":12684:12751   */\n      tag_311\n        /* \"#utility.yul\":12748:12750   */\n      0x10\n        /* \"#utility.yul\":12743:12746   */\n      dup4\n        /* \"#utility.yul\":12684:12751   */\n      tag_172\n      jump\t// in\n    tag_311:\n        /* \"#utility.yul\":12677:12751   */\n      swap2\n      pop\n        /* \"#utility.yul\":12760:12853   */\n      tag_312\n        /* \"#utility.yul\":12849:12852   */\n      dup3\n        /* \"#utility.yul\":12760:12853   */\n      tag_188\n      jump\t// in\n    tag_312:\n        /* \"#utility.yul\":12878:12880   */\n      0x20\n        /* \"#utility.yul\":12873:12876   */\n      dup3\n        /* \"#utility.yul\":12869:12881   */\n      add\n        /* \"#utility.yul\":12862:12881   */\n      swap1\n      pop\n        /* \"#utility.yul\":12521:12887   */\n      swap2\n      swap1\n      pop\n      jump\t// out\n        /* \"#utility.yul\":12893:13312   */\n    tag_152:\n        /* \"#utility.yul\":13059:13063   */\n      0x00\n        /* \"#utility.yul\":13097:13099   */\n      0x20\n        /* \"#utility.yul\":13086:13095   */\n      dup3\n        /* \"#utility.yul\":13082:13100   */\n      add\n        /* \"#utility.yul\":13074:13100   */\n      swap1\n      pop\n        /* \"#utility.yul\":13146:13155   */\n      dup2\n        /* \"#utility.yul\":13140:13144   */\n      dup2\n        /* \"#utility.yul\":13136:13156   */\n      sub\n        /* \"#utility.yul\":13132:13133   */\n      0x00\n        /* \"#utility.yul\":13121:13130   */\n      dup4\n        /* \"#utility.yul\":13117:13134   */\n      add\n        /* \"#utility.yul\":13110:13157   */\n      mstore\n        /* \"#utility.yul\":13174:13305   */\n      tag_314\n        /* \"#utility.yul\":13300:13304   */\n      dup2\n        /* \"#utility.yul\":13174:13305   */\n      tag_189\n      jump\t// in\n    tag_314:\n        /* \"#utility.yul\":13166:13305   */\n      swap1\n      pop\n        /* \"#utility.yul\":12893:13312   */\n      swap2\n      swap1\n      pop\n      jump\t// out\n\n    auxdata: 0xa2646970667358221220e160a6aa93c6f0459b415c3666b8b26d24ac951ff423131991bdf133d0ed47fa64736f6c634300081a0033\n}\n",
				"bytecode": {
					"linkReferences": {},
					"object": "608060405234801561000f575f80fd5b506040516117a53803806117a583398181016040528101906100319190610155565b815f806101000a81548173ffffffffffffffffffffffffffffffffffffffff021916908373ffffffffffffffffffffffffffffffffffffffff1602179055508060015f6101000a81548173ffffffffffffffffffffffffffffffffffffffff021916908373ffffffffffffffffffffffffffffffffffffffff1602179055503360045f6101000a81548173ffffffffffffffffffffffffffffffffffffffff021916908373ffffffffffffffffffffffffffffffffffffffff1602179055505050610193565b5f80fd5b5f73ffffffffffffffffffffffffffffffffffffffff82169050919050565b5f610124826100fb565b9050919050565b6101348161011a565b811461013e575f80fd5b50565b5f8151905061014f8161012b565b92915050565b5f806040838503121561016b5761016a6100f7565b5b5f61017885828601610141565b925050602061018985828601610141565b9150509250929050565b611605806101a05f395ff3fe608060405234801561000f575f80fd5b506004361061009c575f3560e01c80638da5cb5b116100645780638da5cb5b146101465780639cd441da146101645780639d7de6b314610180578063dc5fa6c51461019c578063e4f1f70a146101ba5761009c565b80630fc63d10146100a057806319e36f3b146100be57806341976e09146100dc5780635f64b55b1461010c5780638014a7aa1461012a575b5f80fd5b6100a86101d6565b6040516100b59190610f77565b60405180910390f35b6100c66101f9565b6040516100d39190610fa8565b60405180910390f35b6100f660048036038101906100f19190610fef565b6101ff565b6040516101039190610fa8565b60405180910390f35b61011461033b565b6040516101219190610f77565b60405180910390f35b610144600480360381019061013f9190611044565b610360565b005b61014e610622565b60405161015b9190610f77565b60405180910390f35b61017e6004803603810190610179919061106f565b610647565b005b61019a6004803603810190610195919061106f565b6108e3565b005b6101a4610bce565b6040516101b19190610fa8565b60405180910390f35b6101d460048036038101906101cf9190611044565b610bd4565b005b5f8054906101000a900473ffffffffffffffffffffffffffffffffffffffff1681565b60035481565b5f805f9054906101000a900473ffffffffffffffffffffffffffffffffffffffff1673ffffffffffffffffffffffffffffffffffffffff168273ffffffffffffffffffffffffffffffffffffffff160361027d57600254670de0b6b3a764000060035461026c91906110da565b6102769190611148565b9050610336565b60015f9054906101000a900473ffffffffffffffffffffffffffffffffffffffff1673ffffffffffffffffffffffffffffffffffffffff168273ffffffffffffffffffffffffffffffffffffffff16036102fb57600354670de0b6b3a76400006002546102ea91906110da565b6102f49190611148565b9050610336565b6040517f08c379a000000000000000000000000000000000000000000000000000000000815260040161032d906111d2565b60405180910390fd5b919050565b60015f9054906101000a900473ffffffffffffffffffffffffffffffffffffffff1681565b5f81116103a2576040517f08c379a000000000000000000000000000000000000000000000000000000000815260040161039990611260565b60405180910390fd5b5f6103b282600354600254610e96565b90505f81116103f6576040517f08c379a00000000000000000000000000000000000000000000000000000000081526004016103ed906112c8565b60405180910390fd5b8160035f82825461040791906112e6565b925050819055508060025f82825461041f9190611319565b9250508190555060015f9054906101000a900473ffffffffffffffffffffffffffffffffffffffff1673ffffffffffffffffffffffffffffffffffffffff166323b872dd3330856040518463ffffffff1660e01b81526004016104849392919061134c565b6020604051808303815f875af11580156104a0573d5f803e3d5ffd5b505050506040513d601f19601f820116820180604052508101906104c491906113b6565b505f8054906101000a900473ffffffffffffffffffffffffffffffffffffffff1673ffffffffffffffffffffffffffffffffffffffff1663a9059cbb33836040518363ffffffff1660e01b815260040161051f9291906113e1565b6020604051808303815f875af115801561053b573d5f803e3d5ffd5b505050506040513d601f19601f8201168201806040525081019061055f91906113b6565b505f8054906101000a900473ffffffffffffffffffffffffffffffffffffffff1673ffffffffffffffffffffffffffffffffffffffff1660015f9054906101000a900473ffffffffffffffffffffffffffffffffffffffff1673ffffffffffffffffffffffffffffffffffffffff163373ffffffffffffffffffffffffffffffffffffffff167fad56699d0f375866eb895ed27203058a36a713382aaded78eb6b67da266d43328585604051610616929190611408565b60405180910390a45050565b60045f9054906101000a900473ffffffffffffffffffffffffffffffffffffffff1681565b60045f9054906101000a900473ffffffffffffffffffffffffffffffffffffffff1673ffffffffffffffffffffffffffffffffffffffff163373ffffffffffffffffffffffffffffffffffffffff16146106d6576040517f08c379a00000000000000000000000000000000000000000000000000000000081526004016106cd90611479565b60405180910390fd5b5f821180156106e457505f81115b610723576040517f08c379a000000000000000000000000000000000000000000000000000000000815260040161071a906114e1565b60405180910390fd5b8160025f82825461073491906112e6565b925050819055508060035f82825461074c91906112e6565b925050819055505f8054906101000a900473ffffffffffffffffffffffffffffffffffffffff1673ffffffffffffffffffffffffffffffffffffffff166323b872dd3330856040518463ffffffff1660e01b81526004016107af9392919061134c565b6020604051808303815f875af11580156107cb573d5f803e3d5ffd5b505050506040513d601f19601f820116820180604052508101906107ef91906113b6565b5060015f9054906101000a900473ffffffffffffffffffffffffffffffffffffffff1673ffffffffffffffffffffffffffffffffffffffff166323b872dd3330846040518463ffffffff1660e01b815260040161084e9392919061134c565b6020604051808303815f875af115801561086a573d5f803e3d5ffd5b505050506040513d601f19601f8201168201806040525081019061088e91906113b6565b503373ffffffffffffffffffffffffffffffffffffffff167fac1d76749e5447b7b16f5ab61447e1bd502f3bb4807af3b28e620d1700a6ee4583836040516108d7929190611408565b60405180910390a25050565b60045f9054906101000a900473ffffffffffffffffffffffffffffffffffffffff1673ffffffffffffffffffffffffffffffffffffffff163373ffffffffffffffffffffffffffffffffffffffff1614610972576040517f08c379a000000000000000000000000000000000000000000000000000000000815260040161096990611479565b60405180910390fd5b5f8211801561098057505f81115b6109bf576040517f08c379a00000000000000000000000000000000000000000000000000000000081526004016109b6906114e1565b60405180910390fd5b60025482111580156109d357506003548111155b610a12576040517f08c379a0000000000000000000000000000000000000000000000000000000008152600401610a0990611549565b60405180910390fd5b8160025f828254610a239190611319565b925050819055508060035f828254610a3b9190611319565b925050819055505f8054906101000a900473ffffffffffffffffffffffffffffffffffffffff1673ffffffffffffffffffffffffffffffffffffffff1663a9059cbb33846040518363ffffffff1660e01b8152600401610a9c9291906113e1565b6020604051808303815f875af1158015610ab8573d5f803e3d5ffd5b505050506040513d601f19601f82011682018060405250810190610adc91906113b6565b5060015f9054906101000a900473ffffffffffffffffffffffffffffffffffffffff1673ffffffffffffffffffffffffffffffffffffffff1663a9059cbb33836040518363ffffffff1660e01b8152600401610b399291906113e1565b6020604051808303815f875af1158015610b55573d5f803e3d5ffd5b505050506040513d601f19601f82011682018060405250810190610b7991906113b6565b503373ffffffffffffffffffffffffffffffffffffffff167f96cd817c6329656790ef8fba7675405193677d39619571282f5e21f3a98cd0598383604051610bc2929190611408565b60405180910390a25050565b60025481565b5f8111610c16576040517f08c379a0000000000000000000000000000000000000000000000000000000008152600401610c0d90611260565b60405180910390fd5b5f610c2682600254600354610e96565b90505f8111610c6a576040517f08c379a0000000000000000000000000000000000000000000000000000000008152600401610c61906112c8565b60405180910390fd5b8160025f828254610c7b91906112e6565b925050819055508060035f828254610c939190611319565b925050819055505f8054906101000a900473ffffffffffffffffffffffffffffffffffffffff1673ffffffffffffffffffffffffffffffffffffffff166323b872dd3330856040518463ffffffff1660e01b8152600401610cf69392919061134c565b6020604051808303815f875af1158015610d12573d5f803e3d5ffd5b505050506040513d601f19601f82011682018060405250810190610d3691906113b6565b5060015f9054906101000a900473ffffffffffffffffffffffffffffffffffffffff1673ffffffffffffffffffffffffffffffffffffffff1663a9059cbb33836040518363ffffffff1660e01b8152600401610d939291906113e1565b6020604051808303815f875af1158015610daf573d5f803e3d5ffd5b505050506040513d601f19601f82011682018060405250810190610dd391906113b6565b5060015f9054906101000a900473ffffffffffffffffffffffffffffffffffffffff1673ffffffffffffffffffffffffffffffffffffffff165f8054906101000a900473ffffffffffffffffffffffffffffffffffffffff1673ffffffffffffffffffffffffffffffffffffffff163373ffffffffffffffffffffffffffffffffffffffff167fad56699d0f375866eb895ed27203058a36a713382aaded78eb6b67da266d43328585604051610e8a929190611408565b60405180910390a45050565b5f8083118015610ea557505f82115b610ee4576040517f08c379a0000000000000000000000000000000000000000000000000000000008152600401610edb906115b1565b60405180910390fd5b5f6103e585610ef391906110da565b90505f8382610f0291906110da565b90505f826103e887610f1491906110da565b610f1e91906112e6565b90508082610f2c9190611148565b93505050509392505050565b5f73ffffffffffffffffffffffffffffffffffffffff82169050919050565b5f610f6182610f38565b9050919050565b610f7181610f57565b82525050565b5f602082019050610f8a5f830184610f68565b92915050565b5f819050919050565b610fa281610f90565b82525050565b5f602082019050610fbb5f830184610f99565b92915050565b5f80fd5b610fce81610f57565b8114610fd8575f80fd5b50565b5f81359050610fe981610fc5565b92915050565b5f6020828403121561100457611003610fc1565b5b5f61101184828501610fdb565b91505092915050565b61102381610f90565b811461102d575f80fd5b50565b5f8135905061103e8161101a565b92915050565b5f6020828403121561105957611058610fc1565b5b5f61106684828501611030565b91505092915050565b5f806040838503121561108557611084610fc1565b5b5f61109285828601611030565b92505060206110a385828601611030565b9150509250929050565b7f4e487b71000000000000000000000000000000000000000000000000000000005f52601160045260245ffd5b5f6110e482610f90565b91506110ef83610f90565b92508282026110fd81610f90565b91508282048414831517611114576111136110ad565b5b5092915050565b7f4e487b71000000000000000000000000000000000000000000000000000000005f52601260045260245ffd5b5f61115282610f90565b915061115d83610f90565b92508261116d5761116c61111b565b5b828204905092915050565b5f82825260208201905092915050565b7f496e76616c696420746f6b656e206164647265737300000000000000000000005f82015250565b5f6111bc601583611178565b91506111c782611188565b602082019050919050565b5f6020820190508181035f8301526111e9816111b0565b9050919050565b7f496e70757420616d6f756e74206d7573742062652067726561746572207468615f8201527f6e20300000000000000000000000000000000000000000000000000000000000602082015250565b5f61124a602383611178565b9150611255826111f0565b604082019050919050565b5f6020820190508181035f8301526112778161123e565b9050919050565b7f496e73756666696369656e74206f757470757420616d6f756e740000000000005f82015250565b5f6112b2601a83611178565b91506112bd8261127e565b602082019050919050565b5f6020820190508181035f8301526112df816112a6565b9050919050565b5f6112f082610f90565b91506112fb83610f90565b9250828201905080821115611313576113126110ad565b5b92915050565b5f61132382610f90565b915061132e83610f90565b9250828203905081811115611346576113456110ad565b5b92915050565b5f60608201905061135f5f830186610f68565b61136c6020830185610f68565b6113796040830184610f99565b949350505050565b5f8115159050919050565b61139581611381565b811461139f575f80fd5b50565b5f815190506113b08161138c565b92915050565b5f602082840312156113cb576113ca610fc1565b5b5f6113d8848285016113a2565b91505092915050565b5f6040820190506113f45f830185610f68565b6114016020830184610f99565b9392505050565b5f60408201905061141b5f830185610f99565b6114286020830184610f99565b9392505050565b7f4e6f742074686520636f6e7472616374206f776e6572000000000000000000005f82015250565b5f611463601683611178565b915061146e8261142f565b602082019050919050565b5f6020820190508181035f83015261149081611457565b9050919050565b7f416d6f756e7473206d7573742062652067726561746572207468616e203000005f82015250565b5f6114cb601e83611178565b91506114d682611497565b602082019050919050565b5f6020820190508181035f8301526114f8816114bf565b9050919050565b7f496e73756666696369656e74206c6971756964697479000000000000000000005f82015250565b5f611533601683611178565b915061153e826114ff565b602082019050919050565b5f6020820190508181035f83015261156081611527565b9050919050565b7f496e76616c6964207265736572766573000000000000000000000000000000005f82015250565b5f61159b601083611178565b91506115a682611567565b602082019050919050565b5f6020820190508181035f8301526115c88161158f565b905091905056fea2646970667358221220e160a6aa93c6f0459b415c3666b8b26d24ac951ff423131991bdf133d0ed47fa64736f6c634300081a0033",
					"opcodes": "PUSH1 0x80 PUSH1 0x40 MSTORE CALLVALUE DUP1 ISZERO PUSH2 0xF JUMPI PUSH0 DUP1 REVERT JUMPDEST POP PUSH1 0x40 MLOAD PUSH2 0x17A5 CODESIZE SUB DUP1 PUSH2 0x17A5 DUP4 CODECOPY DUP2 DUP2 ADD PUSH1 0x40 MSTORE DUP2 ADD SWAP1 PUSH2 0x31 SWAP2 SWAP1 PUSH2 0x155 JUMP JUMPDEST DUP2 PUSH0 DUP1 PUSH2 0x100 EXP DUP2 SLOAD DUP2 PUSH20 0xFFFFFFFFFFFFFFFFFFFFFFFFFFFFFFFFFFFFFFFF MUL NOT AND SWAP1 DUP4 PUSH20 0xFFFFFFFFFFFFFFFFFFFFFFFFFFFFFFFFFFFFFFFF AND MUL OR SWAP1 SSTORE POP DUP1 PUSH1 0x1 PUSH0 PUSH2 0x100 EXP DUP2 SLOAD DUP2 PUSH20 0xFFFFFFFFFFFFFFFFFFFFFFFFFFFFFFFFFFFFFFFF MUL NOT AND SWAP1 DUP4 PUSH20 0xFFFFFFFFFFFFFFFFFFFFFFFFFFFFFFFFFFFFFFFF AND MUL OR SWAP1 SSTORE POP CALLER PUSH1 0x4 PUSH0 PUSH2 0x100 EXP DUP2 SLOAD DUP2 PUSH20 0xFFFFFFFFFFFFFFFFFFFFFFFFFFFFFFFFFFFFFFFF MUL NOT AND SWAP1 DUP4 PUSH20 0xFFFFFFFFFFFFFFFFFFFFFFFFFFFFFFFFFFFFFFFF AND MUL OR SWAP1 SSTORE POP POP POP PUSH2 0x193 JUMP JUMPDEST PUSH0 DUP1 REVERT JUMPDEST PUSH0 PUSH20 0xFFFFFFFFFFFFFFFFFFFFFFFFFFFFFFFFFFFFFFFF DUP3 AND SWAP1 POP SWAP2 SWAP1 POP JUMP JUMPDEST PUSH0 PUSH2 0x124 DUP3 PUSH2 0xFB JUMP JUMPDEST SWAP1 POP SWAP2 SWAP1 POP JUMP JUMPDEST PUSH2 0x134 DUP2 PUSH2 0x11A JUMP JUMPDEST DUP2 EQ PUSH2 0x13E JUMPI PUSH0 DUP1 REVERT JUMPDEST POP JUMP JUMPDEST PUSH0 DUP2 MLOAD SWAP1 POP PUSH2 0x14F DUP2 PUSH2 0x12B JUMP JUMPDEST SWAP3 SWAP2 POP POP JUMP JUMPDEST PUSH0 DUP1 PUSH1 0x40 DUP4 DUP6 SUB SLT ISZERO PUSH2 0x16B JUMPI PUSH2 0x16A PUSH2 0xF7 JUMP JUMPDEST JUMPDEST PUSH0 PUSH2 0x178 DUP6 DUP3 DUP7 ADD PUSH2 0x141 JUMP JUMPDEST SWAP3 POP POP PUSH1 0x20 PUSH2 0x189 DUP6 DUP3 DUP7 ADD PUSH2 0x141 JUMP JUMPDEST SWAP2 POP POP SWAP3 POP SWAP3 SWAP1 POP JUMP JUMPDEST PUSH2 0x1605 DUP1 PUSH2 0x1A0 PUSH0 CODECOPY PUSH0 RETURN INVALID PUSH1 0x80 PUSH1 0x40 MSTORE CALLVALUE DUP1 ISZERO PUSH2 0xF JUMPI PUSH0 DUP1 REVERT JUMPDEST POP PUSH1 0x4 CALLDATASIZE LT PUSH2 0x9C JUMPI PUSH0 CALLDATALOAD PUSH1 0xE0 SHR DUP1 PUSH4 0x8DA5CB5B GT PUSH2 0x64 JUMPI DUP1 PUSH4 0x8DA5CB5B EQ PUSH2 0x146 JUMPI DUP1 PUSH4 0x9CD441DA EQ PUSH2 0x164 JUMPI DUP1 PUSH4 0x9D7DE6B3 EQ PUSH2 0x180 JUMPI DUP1 PUSH4 0xDC5FA6C5 EQ PUSH2 0x19C JUMPI DUP1 PUSH4 0xE4F1F70A EQ PUSH2 0x1BA JUMPI PUSH2 0x9C JUMP JUMPDEST DUP1 PUSH4 0xFC63D10 EQ PUSH2 0xA0 JUMPI DUP1 PUSH4 0x19E36F3B EQ PUSH2 0xBE JUMPI DUP1 PUSH4 0x41976E09 EQ PUSH2 0xDC JUMPI DUP1 PUSH4 0x5F64B55B EQ PUSH2 0x10C JUMPI DUP1 PUSH4 0x8014A7AA EQ PUSH2 0x12A JUMPI JUMPDEST PUSH0 DUP1 REVERT JUMPDEST PUSH2 0xA8 PUSH2 0x1D6 JUMP JUMPDEST PUSH1 0x40 MLOAD PUSH2 0xB5 SWAP2 SWAP1 PUSH2 0xF77 JUMP JUMPDEST PUSH1 0x40 MLOAD DUP1 SWAP2 SUB SWAP1 RETURN JUMPDEST PUSH2 0xC6 PUSH2 0x1F9 JUMP JUMPDEST PUSH1 0x40 MLOAD PUSH2 0xD3 SWAP2 SWAP1 PUSH2 0xFA8 JUMP JUMPDEST PUSH1 0x40 MLOAD DUP1 SWAP2 SUB SWAP1 RETURN JUMPDEST PUSH2 0xF6 PUSH1 0x4 DUP1 CALLDATASIZE SUB DUP2 ADD SWAP1 PUSH2 0xF1 SWAP2 SWAP1 PUSH2 0xFEF JUMP JUMPDEST PUSH2 0x1FF JUMP JUMPDEST PUSH1 0x40 MLOAD PUSH2 0x103 SWAP2 SWAP1 PUSH2 0xFA8 JUMP JUMPDEST PUSH1 0x40 MLOAD DUP1 SWAP2 SUB SWAP1 RETURN JUMPDEST PUSH2 0x114 PUSH2 0x33B JUMP JUMPDEST PUSH1 0x40 MLOAD PUSH2 0x121 SWAP2 SWAP1 PUSH2 0xF77 JUMP JUMPDEST PUSH1 0x40 MLOAD DUP1 SWAP2 SUB SWAP1 RETURN JUMPDEST PUSH2 0x144 PUSH1 0x4 DUP1 CALLDATASIZE SUB DUP2 ADD SWAP1 PUSH2 0x13F SWAP2 SWAP1 PUSH2 0x1044 JUMP JUMPDEST PUSH2 0x360 JUMP JUMPDEST STOP JUMPDEST PUSH2 0x14E PUSH2 0x622 JUMP JUMPDEST PUSH1 0x40 MLOAD PUSH2 0x15B SWAP2 SWAP1 PUSH2 0xF77 JUMP JUMPDEST PUSH1 0x40 MLOAD DUP1 SWAP2 SUB SWAP1 RETURN JUMPDEST PUSH2 0x17E PUSH1 0x4 DUP1 CALLDATASIZE SUB DUP2 ADD SWAP1 PUSH2 0x179 SWAP2 SWAP1 PUSH2 0x106F JUMP JUMPDEST PUSH2 0x647 JUMP JUMPDEST STOP JUMPDEST PUSH2 0x19A PUSH1 0x4 DUP1 CALLDATASIZE SUB DUP2 ADD SWAP1 PUSH2 0x195 SWAP2 SWAP1 PUSH2 0x106F JUMP JUMPDEST PUSH2 0x8E3 JUMP JUMPDEST STOP JUMPDEST PUSH2 0x1A4 PUSH2 0xBCE JUMP JUMPDEST PUSH1 0x40 MLOAD PUSH2 0x1B1 SWAP2 SWAP1 PUSH2 0xFA8 JUMP JUMPDEST PUSH1 0x40 MLOAD DUP1 SWAP2 SUB SWAP1 RETURN JUMPDEST PUSH2 0x1D4 PUSH1 0x4 DUP1 CALLDATASIZE SUB DUP2 ADD SWAP1 PUSH2 0x1CF SWAP2 SWAP1 PUSH2 0x1044 JUMP JUMPDEST PUSH2 0xBD4 JUMP JUMPDEST STOP JUMPDEST PUSH0 DUP1 SLOAD SWAP1 PUSH2 0x100 EXP SWAP1 DIV PUSH20 0xFFFFFFFFFFFFFFFFFFFFFFFFFFFFFFFFFFFFFFFF AND DUP2 JUMP JUMPDEST PUSH1 0x3 SLOAD DUP2 JUMP JUMPDEST PUSH0 DUP1 PUSH0 SWAP1 SLOAD SWAP1 PUSH2 0x100 EXP SWAP1 DIV PUSH20 0xFFFFFFFFFFFFFFFFFFFFFFFFFFFFFFFFFFFFFFFF AND PUSH20 0xFFFFFFFFFFFFFFFFFFFFFFFFFFFFFFFFFFFFFFFF AND DUP3 PUSH20 0xFFFFFFFFFFFFFFFFFFFFFFFFFFFFFFFFFFFFFFFF AND SUB PUSH2 0x27D JUMPI PUSH1 0x2 SLOAD PUSH8 0xDE0B6B3A7640000 PUSH1 0x3 SLOAD PUSH2 0x26C SWAP2 SWAP1 PUSH2 0x10DA JUMP JUMPDEST PUSH2 0x276 SWAP2 SWAP1 PUSH2 0x1148 JUMP JUMPDEST SWAP1 POP PUSH2 0x336 JUMP JUMPDEST PUSH1 0x1 PUSH0 SWAP1 SLOAD SWAP1 PUSH2 0x100 EXP SWAP1 DIV PUSH20 0xFFFFFFFFFFFFFFFFFFFFFFFFFFFFFFFFFFFFFFFF AND PUSH20 0xFFFFFFFFFFFFFFFFFFFFFFFFFFFFFFFFFFFFFFFF AND DUP3 PUSH20 0xFFFFFFFFFFFFFFFFFFFFFFFFFFFFFFFFFFFFFFFF AND SUB PUSH2 0x2FB JUMPI PUSH1 0x3 SLOAD PUSH8 0xDE0B6B3A7640000 PUSH1 0x2 SLOAD PUSH2 0x2EA SWAP2 SWAP1 PUSH2 0x10DA JUMP JUMPDEST PUSH2 0x2F4 SWAP2 SWAP1 PUSH2 0x1148 JUMP JUMPDEST SWAP1 POP PUSH2 0x336 JUMP JUMPDEST PUSH1 0x40 MLOAD PUSH32 0x8C379A000000000000000000000000000000000000000000000000000000000 DUP2 MSTORE PUSH1 0x4 ADD PUSH2 0x32D SWAP1 PUSH2 0x11D2 JUMP JUMPDEST PUSH1 0x40 MLOAD DUP1 SWAP2 SUB SWAP1 REVERT JUMPDEST SWAP2 SWAP1 POP JUMP JUMPDEST PUSH1 0x1 PUSH0 SWAP1 SLOAD SWAP1 PUSH2 0x100 EXP SWAP1 DIV PUSH20 0xFFFFFFFFFFFFFFFFFFFFFFFFFFFFFFFFFFFFFFFF AND DUP2 JUMP JUMPDEST PUSH0 DUP2 GT PUSH2 0x3A2 JUMPI PUSH1 0x40 MLOAD PUSH32 0x8C379A000000000000000000000000000000000000000000000000000000000 DUP2 MSTORE PUSH1 0x4 ADD PUSH2 0x399 SWAP1 PUSH2 0x1260 JUMP JUMPDEST PUSH1 0x40 MLOAD DUP1 SWAP2 SUB SWAP1 REVERT JUMPDEST PUSH0 PUSH2 0x3B2 DUP3 PUSH1 0x3 SLOAD PUSH1 0x2 SLOAD PUSH2 0xE96 JUMP JUMPDEST SWAP1 POP PUSH0 DUP2 GT PUSH2 0x3F6 JUMPI PUSH1 0x40 MLOAD PUSH32 0x8C379A000000000000000000000000000000000000000000000000000000000 DUP2 MSTORE PUSH1 0x4 ADD PUSH2 0x3ED SWAP1 PUSH2 0x12C8 JUMP JUMPDEST PUSH1 0x40 MLOAD DUP1 SWAP2 SUB SWAP1 REVERT JUMPDEST DUP2 PUSH1 0x3 PUSH0 DUP3 DUP3 SLOAD PUSH2 0x407 SWAP2 SWAP1 PUSH2 0x12E6 JUMP JUMPDEST SWAP3 POP POP DUP2 SWAP1 SSTORE POP DUP1 PUSH1 0x2 PUSH0 DUP3 DUP3 SLOAD PUSH2 0x41F SWAP2 SWAP1 PUSH2 0x1319 JUMP JUMPDEST SWAP3 POP POP DUP2 SWAP1 SSTORE POP PUSH1 0x1 PUSH0 SWAP1 SLOAD SWAP1 PUSH2 0x100 EXP SWAP1 DIV PUSH20 0xFFFFFFFFFFFFFFFFFFFFFFFFFFFFFFFFFFFFFFFF AND PUSH20 0xFFFFFFFFFFFFFFFFFFFFFFFFFFFFFFFFFFFFFFFF AND PUSH4 0x23B872DD CALLER ADDRESS DUP6 PUSH1 0x40 MLOAD DUP5 PUSH4 0xFFFFFFFF AND PUSH1 0xE0 SHL DUP2 MSTORE PUSH1 0x4 ADD PUSH2 0x484 SWAP4 SWAP3 SWAP2 SWAP1 PUSH2 0x134C JUMP JUMPDEST PUSH1 0x20 PUSH1 0x40 MLOAD DUP1 DUP4 SUB DUP2 PUSH0 DUP8 GAS CALL ISZERO DUP1 ISZERO PUSH2 0x4A0 JUMPI RETURNDATASIZE PUSH0 DUP1 RETURNDATACOPY RETURNDATASIZE PUSH0 REVERT JUMPDEST POP POP POP POP PUSH1 0x40 MLOAD RETURNDATASIZE PUSH1 0x1F NOT PUSH1 0x1F DUP3 ADD AND DUP3 ADD DUP1 PUSH1 0x40 MSTORE POP DUP2 ADD SWAP1 PUSH2 0x4C4 SWAP2 SWAP1 PUSH2 0x13B6 JUMP JUMPDEST POP PUSH0 DUP1 SLOAD SWAP1 PUSH2 0x100 EXP SWAP1 DIV PUSH20 0xFFFFFFFFFFFFFFFFFFFFFFFFFFFFFFFFFFFFFFFF AND PUSH20 0xFFFFFFFFFFFFFFFFFFFFFFFFFFFFFFFFFFFFFFFF AND PUSH4 0xA9059CBB CALLER DUP4 PUSH1 0x40 MLOAD DUP4 PUSH4 0xFFFFFFFF AND PUSH1 0xE0 SHL DUP2 MSTORE PUSH1 0x4 ADD PUSH2 0x51F SWAP3 SWAP2 SWAP1 PUSH2 0x13E1 JUMP JUMPDEST PUSH1 0x20 PUSH1 0x40 MLOAD DUP1 DUP4 SUB DUP2 PUSH0 DUP8 GAS CALL ISZERO DUP1 ISZERO PUSH2 0x53B JUMPI RETURNDATASIZE PUSH0 DUP1 RETURNDATACOPY RETURNDATASIZE PUSH0 REVERT JUMPDEST POP POP POP POP PUSH1 0x40 MLOAD RETURNDATASIZE PUSH1 0x1F NOT PUSH1 0x1F DUP3 ADD AND DUP3 ADD DUP1 PUSH1 0x40 MSTORE POP DUP2 ADD SWAP1 PUSH2 0x55F SWAP2 SWAP1 PUSH2 0x13B6 JUMP JUMPDEST POP PUSH0 DUP1 SLOAD SWAP1 PUSH2 0x100 EXP SWAP1 DIV PUSH20 0xFFFFFFFFFFFFFFFFFFFFFFFFFFFFFFFFFFFFFFFF AND PUSH20 0xFFFFFFFFFFFFFFFFFFFFFFFFFFFFFFFFFFFFFFFF AND PUSH1 0x1 PUSH0 SWAP1 SLOAD SWAP1 PUSH2 0x100 EXP SWAP1 DIV PUSH20 0xFFFFFFFFFFFFFFFFFFFFFFFFFFFFFFFFFFFFFFFF AND PUSH20 0xFFFFFFFFFFFFFFFFFFFFFFFFFFFFFFFFFFFFFFFF AND CALLER PUSH20 0xFFFFFFFFFFFFFFFFFFFFFFFFFFFFFFFFFFFFFFFF AND PUSH32 0xAD56699D0F375866EB895ED27203058A36A713382AADED78EB6B67DA266D4332 DUP6 DUP6 PUSH1 0x40 MLOAD PUSH2 0x616 SWAP3 SWAP2 SWAP1 PUSH2 0x1408 JUMP JUMPDEST PUSH1 0x40 MLOAD DUP1 SWAP2 SUB SWAP1 LOG4 POP POP JUMP JUMPDEST PUSH1 0x4 PUSH0 SWAP1 SLOAD SWAP1 PUSH2 0x100 EXP SWAP1 DIV PUSH20 0xFFFFFFFFFFFFFFFFFFFFFFFFFFFFFFFFFFFFFFFF AND DUP2 JUMP JUMPDEST PUSH1 0x4 PUSH0 SWAP1 SLOAD SWAP1 PUSH2 0x100 EXP SWAP1 DIV PUSH20 0xFFFFFFFFFFFFFFFFFFFFFFFFFFFFFFFFFFFFFFFF AND PUSH20 0xFFFFFFFFFFFFFFFFFFFFFFFFFFFFFFFFFFFFFFFF AND CALLER PUSH20 0xFFFFFFFFFFFFFFFFFFFFFFFFFFFFFFFFFFFFFFFF AND EQ PUSH2 0x6D6 JUMPI PUSH1 0x40 MLOAD PUSH32 0x8C379A000000000000000000000000000000000000000000000000000000000 DUP2 MSTORE PUSH1 0x4 ADD PUSH2 0x6CD SWAP1 PUSH2 0x1479 JUMP JUMPDEST PUSH1 0x40 MLOAD DUP1 SWAP2 SUB SWAP1 REVERT JUMPDEST PUSH0 DUP3 GT DUP1 ISZERO PUSH2 0x6E4 JUMPI POP PUSH0 DUP2 GT JUMPDEST PUSH2 0x723 JUMPI PUSH1 0x40 MLOAD PUSH32 0x8C379A000000000000000000000000000000000000000000000000000000000 DUP2 MSTORE PUSH1 0x4 ADD PUSH2 0x71A SWAP1 PUSH2 0x14E1 JUMP JUMPDEST PUSH1 0x40 MLOAD DUP1 SWAP2 SUB SWAP1 REVERT JUMPDEST DUP2 PUSH1 0x2 PUSH0 DUP3 DUP3 SLOAD PUSH2 0x734 SWAP2 SWAP1 PUSH2 0x12E6 JUMP JUMPDEST SWAP3 POP POP DUP2 SWAP1 SSTORE POP DUP1 PUSH1 0x3 PUSH0 DUP3 DUP3 SLOAD PUSH2 0x74C SWAP2 SWAP1 PUSH2 0x12E6 JUMP JUMPDEST SWAP3 POP POP DUP2 SWAP1 SSTORE POP PUSH0 DUP1 SLOAD SWAP1 PUSH2 0x100 EXP SWAP1 DIV PUSH20 0xFFFFFFFFFFFFFFFFFFFFFFFFFFFFFFFFFFFFFFFF AND PUSH20 0xFFFFFFFFFFFFFFFFFFFFFFFFFFFFFFFFFFFFFFFF AND PUSH4 0x23B872DD CALLER ADDRESS DUP6 PUSH1 0x40 MLOAD DUP5 PUSH4 0xFFFFFFFF AND PUSH1 0xE0 SHL DUP2 MSTORE PUSH1 0x4 ADD PUSH2 0x7AF SWAP4 SWAP3 SWAP2 SWAP1 PUSH2 0x134C JUMP JUMPDEST PUSH1 0x20 PUSH1 0x40 MLOAD DUP1 DUP4 SUB DUP2 PUSH0 DUP8 GAS CALL ISZERO DUP1 ISZERO PUSH2 0x7CB JUMPI RETURNDATASIZE PUSH0 DUP1 RETURNDATACOPY RETURNDATASIZE PUSH0 REVERT JUMPDEST POP POP POP POP PUSH1 0x40 MLOAD RETURNDATASIZE PUSH1 0x1F NOT PUSH1 0x1F DUP3 ADD AND DUP3 ADD DUP1 PUSH1 0x40 MSTORE POP DUP2 ADD SWAP1 PUSH2 0x7EF SWAP2 SWAP1 PUSH2 0x13B6 JUMP JUMPDEST POP PUSH1 0x1 PUSH0 SWAP1 SLOAD SWAP1 PUSH2 0x100 EXP SWAP1 DIV PUSH20 0xFFFFFFFFFFFFFFFFFFFFFFFFFFFFFFFFFFFFFFFF AND PUSH20 0xFFFFFFFFFFFFFFFFFFFFFFFFFFFFFFFFFFFFFFFF AND PUSH4 0x23B872DD CALLER ADDRESS DUP5 PUSH1 0x40 MLOAD DUP5 PUSH4 0xFFFFFFFF AND PUSH1 0xE0 SHL DUP2 MSTORE PUSH1 0x4 ADD PUSH2 0x84E SWAP4 SWAP3 SWAP2 SWAP1 PUSH2 0x134C JUMP JUMPDEST PUSH1 0x20 PUSH1 0x40 MLOAD DUP1 DUP4 SUB DUP2 PUSH0 DUP8 GAS CALL ISZERO DUP1 ISZERO PUSH2 0x86A JUMPI RETURNDATASIZE PUSH0 DUP1 RETURNDATACOPY RETURNDATASIZE PUSH0 REVERT JUMPDEST POP POP POP POP PUSH1 0x40 MLOAD RETURNDATASIZE PUSH1 0x1F NOT PUSH1 0x1F DUP3 ADD AND DUP3 ADD DUP1 PUSH1 0x40 MSTORE POP DUP2 ADD SWAP1 PUSH2 0x88E SWAP2 SWAP1 PUSH2 0x13B6 JUMP JUMPDEST POP CALLER PUSH20 0xFFFFFFFFFFFFFFFFFFFFFFFFFFFFFFFFFFFFFFFF AND PUSH32 0xAC1D76749E5447B7B16F5AB61447E1BD502F3BB4807AF3B28E620D1700A6EE45 DUP4 DUP4 PUSH1 0x40 MLOAD PUSH2 0x8D7 SWAP3 SWAP2 SWAP1 PUSH2 0x1408 JUMP JUMPDEST PUSH1 0x40 MLOAD DUP1 SWAP2 SUB SWAP1 LOG2 POP POP JUMP JUMPDEST PUSH1 0x4 PUSH0 SWAP1 SLOAD SWAP1 PUSH2 0x100 EXP SWAP1 DIV PUSH20 0xFFFFFFFFFFFFFFFFFFFFFFFFFFFFFFFFFFFFFFFF AND PUSH20 0xFFFFFFFFFFFFFFFFFFFFFFFFFFFFFFFFFFFFFFFF AND CALLER PUSH20 0xFFFFFFFFFFFFFFFFFFFFFFFFFFFFFFFFFFFFFFFF AND EQ PUSH2 0x972 JUMPI PUSH1 0x40 MLOAD PUSH32 0x8C379A000000000000000000000000000000000000000000000000000000000 DUP2 MSTORE PUSH1 0x4 ADD PUSH2 0x969 SWAP1 PUSH2 0x1479 JUMP JUMPDEST PUSH1 0x40 MLOAD DUP1 SWAP2 SUB SWAP1 REVERT JUMPDEST PUSH0 DUP3 GT DUP1 ISZERO PUSH2 0x980 JUMPI POP PUSH0 DUP2 GT JUMPDEST PUSH2 0x9BF JUMPI PUSH1 0x40 MLOAD PUSH32 0x8C379A000000000000000000000000000000000000000000000000000000000 DUP2 MSTORE PUSH1 0x4 ADD PUSH2 0x9B6 SWAP1 PUSH2 0x14E1 JUMP JUMPDEST PUSH1 0x40 MLOAD DUP1 SWAP2 SUB SWAP1 REVERT JUMPDEST PUSH1 0x2 SLOAD DUP3 GT ISZERO DUP1 ISZERO PUSH2 0x9D3 JUMPI POP PUSH1 0x3 SLOAD DUP2 GT ISZERO JUMPDEST PUSH2 0xA12 JUMPI PUSH1 0x40 MLOAD PUSH32 0x8C379A000000000000000000000000000000000000000000000000000000000 DUP2 MSTORE PUSH1 0x4 ADD PUSH2 0xA09 SWAP1 PUSH2 0x1549 JUMP JUMPDEST PUSH1 0x40 MLOAD DUP1 SWAP2 SUB SWAP1 REVERT JUMPDEST DUP2 PUSH1 0x2 PUSH0 DUP3 DUP3 SLOAD PUSH2 0xA23 SWAP2 SWAP1 PUSH2 0x1319 JUMP JUMPDEST SWAP3 POP POP DUP2 SWAP1 SSTORE POP DUP1 PUSH1 0x3 PUSH0 DUP3 DUP3 SLOAD PUSH2 0xA3B SWAP2 SWAP1 PUSH2 0x1319 JUMP JUMPDEST SWAP3 POP POP DUP2 SWAP1 SSTORE POP PUSH0 DUP1 SLOAD SWAP1 PUSH2 0x100 EXP SWAP1 DIV PUSH20 0xFFFFFFFFFFFFFFFFFFFFFFFFFFFFFFFFFFFFFFFF AND PUSH20 0xFFFFFFFFFFFFFFFFFFFFFFFFFFFFFFFFFFFFFFFF AND PUSH4 0xA9059CBB CALLER DUP5 PUSH1 0x40 MLOAD DUP4 PUSH4 0xFFFFFFFF AND PUSH1 0xE0 SHL DUP2 MSTORE PUSH1 0x4 ADD PUSH2 0xA9C SWAP3 SWAP2 SWAP1 PUSH2 0x13E1 JUMP JUMPDEST PUSH1 0x20 PUSH1 0x40 MLOAD DUP1 DUP4 SUB DUP2 PUSH0 DUP8 GAS CALL ISZERO DUP1 ISZERO PUSH2 0xAB8 JUMPI RETURNDATASIZE PUSH0 DUP1 RETURNDATACOPY RETURNDATASIZE PUSH0 REVERT JUMPDEST POP POP POP POP PUSH1 0x40 MLOAD RETURNDATASIZE PUSH1 0x1F NOT PUSH1 0x1F DUP3 ADD AND DUP3 ADD DUP1 PUSH1 0x40 MSTORE POP DUP2 ADD SWAP1 PUSH2 0xADC SWAP2 SWAP1 PUSH2 0x13B6 JUMP JUMPDEST POP PUSH1 0x1 PUSH0 SWAP1 SLOAD SWAP1 PUSH2 0x100 EXP SWAP1 DIV PUSH20 0xFFFFFFFFFFFFFFFFFFFFFFFFFFFFFFFFFFFFFFFF AND PUSH20 0xFFFFFFFFFFFFFFFFFFFFFFFFFFFFFFFFFFFFFFFF AND PUSH4 0xA9059CBB CALLER DUP4 PUSH1 0x40 MLOAD DUP4 PUSH4 0xFFFFFFFF AND PUSH1 0xE0 SHL DUP2 MSTORE PUSH1 0x4 ADD PUSH2 0xB39 SWAP3 SWAP2 SWAP1 PUSH2 0x13E1 JUMP JUMPDEST PUSH1 0x20 PUSH1 0x40 MLOAD DUP1 DUP4 SUB DUP2 PUSH0 DUP8 GAS CALL ISZERO DUP1 ISZERO PUSH2 0xB55 JUMPI RETURNDATASIZE PUSH0 DUP1 RETURNDATACOPY RETURNDATASIZE PUSH0 REVERT JUMPDEST POP POP POP POP PUSH1 0x40 MLOAD RETURNDATASIZE PUSH1 0x1F NOT PUSH1 0x1F DUP3 ADD AND DUP3 ADD DUP1 PUSH1 0x40 MSTORE POP DUP2 ADD SWAP1 PUSH2 0xB79 SWAP2 SWAP1 PUSH2 0x13B6 JUMP JUMPDEST POP CALLER PUSH20 0xFFFFFFFFFFFFFFFFFFFFFFFFFFFFFFFFFFFFFFFF AND PUSH32 0x96CD817C6329656790EF8FBA7675405193677D39619571282F5E21F3A98CD059 DUP4 DUP4 PUSH1 0x40 MLOAD PUSH2 0xBC2 SWAP3 SWAP2 SWAP1 PUSH2 0x1408 JUMP JUMPDEST PUSH1 0x40 MLOAD DUP1 SWAP2 SUB SWAP1 LOG2 POP POP JUMP JUMPDEST PUSH1 0x2 SLOAD DUP2 JUMP JUMPDEST PUSH0 DUP2 GT PUSH2 0xC16 JUMPI PUSH1 0x40 MLOAD PUSH32 0x8C379A000000000000000000000000000000000000000000000000000000000 DUP2 MSTORE PUSH1 0x4 ADD PUSH2 0xC0D SWAP1 PUSH2 0x1260 JUMP JUMPDEST PUSH1 0x40 MLOAD DUP1 SWAP2 SUB SWAP1 REVERT JUMPDEST PUSH0 PUSH2 0xC26 DUP3 PUSH1 0x2 SLOAD PUSH1 0x3 SLOAD PUSH2 0xE96 JUMP JUMPDEST SWAP1 POP PUSH0 DUP2 GT PUSH2 0xC6A JUMPI PUSH1 0x40 MLOAD PUSH32 0x8C379A000000000000000000000000000000000000000000000000000000000 DUP2 MSTORE PUSH1 0x4 ADD PUSH2 0xC61 SWAP1 PUSH2 0x12C8 JUMP JUMPDEST PUSH1 0x40 MLOAD DUP1 SWAP2 SUB SWAP1 REVERT JUMPDEST DUP2 PUSH1 0x2 PUSH0 DUP3 DUP3 SLOAD PUSH2 0xC7B SWAP2 SWAP1 PUSH2 0x12E6 JUMP JUMPDEST SWAP3 POP POP DUP2 SWAP1 SSTORE POP DUP1 PUSH1 0x3 PUSH0 DUP3 DUP3 SLOAD PUSH2 0xC93 SWAP2 SWAP1 PUSH2 0x1319 JUMP JUMPDEST SWAP3 POP POP DUP2 SWAP1 SSTORE POP PUSH0 DUP1 SLOAD SWAP1 PUSH2 0x100 EXP SWAP1 DIV PUSH20 0xFFFFFFFFFFFFFFFFFFFFFFFFFFFFFFFFFFFFFFFF AND PUSH20 0xFFFFFFFFFFFFFFFFFFFFFFFFFFFFFFFFFFFFFFFF AND PUSH4 0x23B872DD CALLER ADDRESS DUP6 PUSH1 0x40 MLOAD DUP5 PUSH4 0xFFFFFFFF AND PUSH1 0xE0 SHL DUP2 MSTORE PUSH1 0x4 ADD PUSH2 0xCF6 SWAP4 SWAP3 SWAP2 SWAP1 PUSH2 0x134C JUMP JUMPDEST PUSH1 0x20 PUSH1 0x40 MLOAD DUP1 DUP4 SUB DUP2 PUSH0 DUP8 GAS CALL ISZERO DUP1 ISZERO PUSH2 0xD12 JUMPI RETURNDATASIZE PUSH0 DUP1 RETURNDATACOPY RETURNDATASIZE PUSH0 REVERT JUMPDEST POP POP POP POP PUSH1 0x40 MLOAD RETURNDATASIZE PUSH1 0x1F NOT PUSH1 0x1F DUP3 ADD AND DUP3 ADD DUP1 PUSH1 0x40 MSTORE POP DUP2 ADD SWAP1 PUSH2 0xD36 SWAP2 SWAP1 PUSH2 0x13B6 JUMP JUMPDEST POP PUSH1 0x1 PUSH0 SWAP1 SLOAD SWAP1 PUSH2 0x100 EXP SWAP1 DIV PUSH20 0xFFFFFFFFFFFFFFFFFFFFFFFFFFFFFFFFFFFFFFFF AND PUSH20 0xFFFFFFFFFFFFFFFFFFFFFFFFFFFFFFFFFFFFFFFF AND PUSH4 0xA9059CBB CALLER DUP4 PUSH1 0x40 MLOAD DUP4 PUSH4 0xFFFFFFFF AND PUSH1 0xE0 SHL DUP2 MSTORE PUSH1 0x4 ADD PUSH2 0xD93 SWAP3 SWAP2 SWAP1 PUSH2 0x13E1 JUMP JUMPDEST PUSH1 0x20 PUSH1 0x40 MLOAD DUP1 DUP4 SUB DUP2 PUSH0 DUP8 GAS CALL ISZERO DUP1 ISZERO PUSH2 0xDAF JUMPI RETURNDATASIZE PUSH0 DUP1 RETURNDATACOPY RETURNDATASIZE PUSH0 REVERT JUMPDEST POP POP POP POP PUSH1 0x40 MLOAD RETURNDATASIZE PUSH1 0x1F NOT PUSH1 0x1F DUP3 ADD AND DUP3 ADD DUP1 PUSH1 0x40 MSTORE POP DUP2 ADD SWAP1 PUSH2 0xDD3 SWAP2 SWAP1 PUSH2 0x13B6 JUMP JUMPDEST POP PUSH1 0x1 PUSH0 SWAP1 SLOAD SWAP1 PUSH2 0x100 EXP SWAP1 DIV PUSH20 0xFFFFFFFFFFFFFFFFFFFFFFFFFFFFFFFFFFFFFFFF AND PUSH20 0xFFFFFFFFFFFFFFFFFFFFFFFFFFFFFFFFFFFFFFFF AND PUSH0 DUP1 SLOAD SWAP1 PUSH2 0x100 EXP SWAP1 DIV PUSH20 0xFFFFFFFFFFFFFFFFFFFFFFFFFFFFFFFFFFFFFFFF AND PUSH20 0xFFFFFFFFFFFFFFFFFFFFFFFFFFFFFFFFFFFFFFFF AND CALLER PUSH20 0xFFFFFFFFFFFFFFFFFFFFFFFFFFFFFFFFFFFFFFFF AND PUSH32 0xAD56699D0F375866EB895ED27203058A36A713382AADED78EB6B67DA266D4332 DUP6 DUP6 PUSH1 0x40 MLOAD PUSH2 0xE8A SWAP3 SWAP2 SWAP1 PUSH2 0x1408 JUMP JUMPDEST PUSH1 0x40 MLOAD DUP1 SWAP2 SUB SWAP1 LOG4 POP POP JUMP JUMPDEST PUSH0 DUP1 DUP4 GT DUP1 ISZERO PUSH2 0xEA5 JUMPI POP PUSH0 DUP3 GT JUMPDEST PUSH2 0xEE4 JUMPI PUSH1 0x40 MLOAD PUSH32 0x8C379A000000000000000000000000000000000000000000000000000000000 DUP2 MSTORE PUSH1 0x4 ADD PUSH2 0xEDB SWAP1 PUSH2 0x15B1 JUMP JUMPDEST PUSH1 0x40 MLOAD DUP1 SWAP2 SUB SWAP1 REVERT JUMPDEST PUSH0 PUSH2 0x3E5 DUP6 PUSH2 0xEF3 SWAP2 SWAP1 PUSH2 0x10DA JUMP JUMPDEST SWAP1 POP PUSH0 DUP4 DUP3 PUSH2 0xF02 SWAP2 SWAP1 PUSH2 0x10DA JUMP JUMPDEST SWAP1 POP PUSH0 DUP3 PUSH2 0x3E8 DUP8 PUSH2 0xF14 SWAP2 SWAP1 PUSH2 0x10DA JUMP JUMPDEST PUSH2 0xF1E SWAP2 SWAP1 PUSH2 0x12E6 JUMP JUMPDEST SWAP1 POP DUP1 DUP3 PUSH2 0xF2C SWAP2 SWAP1 PUSH2 0x1148 JUMP JUMPDEST SWAP4 POP POP POP POP SWAP4 SWAP3 POP POP POP JUMP JUMPDEST PUSH0 PUSH20 0xFFFFFFFFFFFFFFFFFFFFFFFFFFFFFFFFFFFFFFFF DUP3 AND SWAP1 POP SWAP2 SWAP1 POP JUMP JUMPDEST PUSH0 PUSH2 0xF61 DUP3 PUSH2 0xF38 JUMP JUMPDEST SWAP1 POP SWAP2 SWAP1 POP JUMP JUMPDEST PUSH2 0xF71 DUP2 PUSH2 0xF57 JUMP JUMPDEST DUP3 MSTORE POP POP JUMP JUMPDEST PUSH0 PUSH1 0x20 DUP3 ADD SWAP1 POP PUSH2 0xF8A PUSH0 DUP4 ADD DUP5 PUSH2 0xF68 JUMP JUMPDEST SWAP3 SWAP2 POP POP JUMP JUMPDEST PUSH0 DUP2 SWAP1 POP SWAP2 SWAP1 POP JUMP JUMPDEST PUSH2 0xFA2 DUP2 PUSH2 0xF90 JUMP JUMPDEST DUP3 MSTORE POP POP JUMP JUMPDEST PUSH0 PUSH1 0x20 DUP3 ADD SWAP1 POP PUSH2 0xFBB PUSH0 DUP4 ADD DUP5 PUSH2 0xF99 JUMP JUMPDEST SWAP3 SWAP2 POP POP JUMP JUMPDEST PUSH0 DUP1 REVERT JUMPDEST PUSH2 0xFCE DUP2 PUSH2 0xF57 JUMP JUMPDEST DUP2 EQ PUSH2 0xFD8 JUMPI PUSH0 DUP1 REVERT JUMPDEST POP JUMP JUMPDEST PUSH0 DUP2 CALLDATALOAD SWAP1 POP PUSH2 0xFE9 DUP2 PUSH2 0xFC5 JUMP JUMPDEST SWAP3 SWAP2 POP POP JUMP JUMPDEST PUSH0 PUSH1 0x20 DUP3 DUP5 SUB SLT ISZERO PUSH2 0x1004 JUMPI PUSH2 0x1003 PUSH2 0xFC1 JUMP JUMPDEST JUMPDEST PUSH0 PUSH2 0x1011 DUP5 DUP3 DUP6 ADD PUSH2 0xFDB JUMP JUMPDEST SWAP2 POP POP SWAP3 SWAP2 POP POP JUMP JUMPDEST PUSH2 0x1023 DUP2 PUSH2 0xF90 JUMP JUMPDEST DUP2 EQ PUSH2 0x102D JUMPI PUSH0 DUP1 REVERT JUMPDEST POP JUMP JUMPDEST PUSH0 DUP2 CALLDATALOAD SWAP1 POP PUSH2 0x103E DUP2 PUSH2 0x101A JUMP JUMPDEST SWAP3 SWAP2 POP POP JUMP JUMPDEST PUSH0 PUSH1 0x20 DUP3 DUP5 SUB SLT ISZERO PUSH2 0x1059 JUMPI PUSH2 0x1058 PUSH2 0xFC1 JUMP JUMPDEST JUMPDEST PUSH0 PUSH2 0x1066 DUP5 DUP3 DUP6 ADD PUSH2 0x1030 JUMP JUMPDEST SWAP2 POP POP SWAP3 SWAP2 POP POP JUMP JUMPDEST PUSH0 DUP1 PUSH1 0x40 DUP4 DUP6 SUB SLT ISZERO PUSH2 0x1085 JUMPI PUSH2 0x1084 PUSH2 0xFC1 JUMP JUMPDEST JUMPDEST PUSH0 PUSH2 0x1092 DUP6 DUP3 DUP7 ADD PUSH2 0x1030 JUMP JUMPDEST SWAP3 POP POP PUSH1 0x20 PUSH2 0x10A3 DUP6 DUP3 DUP7 ADD PUSH2 0x1030 JUMP JUMPDEST SWAP2 POP POP SWAP3 POP SWAP3 SWAP1 POP JUMP JUMPDEST PUSH32 0x4E487B7100000000000000000000000000000000000000000000000000000000 PUSH0 MSTORE PUSH1 0x11 PUSH1 0x4 MSTORE PUSH1 0x24 PUSH0 REVERT JUMPDEST PUSH0 PUSH2 0x10E4 DUP3 PUSH2 0xF90 JUMP JUMPDEST SWAP2 POP PUSH2 0x10EF DUP4 PUSH2 0xF90 JUMP JUMPDEST SWAP3 POP DUP3 DUP3 MUL PUSH2 0x10FD DUP2 PUSH2 0xF90 JUMP JUMPDEST SWAP2 POP DUP3 DUP3 DIV DUP5 EQ DUP4 ISZERO OR PUSH2 0x1114 JUMPI PUSH2 0x1113 PUSH2 0x10AD JUMP JUMPDEST JUMPDEST POP SWAP3 SWAP2 POP POP JUMP JUMPDEST PUSH32 0x4E487B7100000000000000000000000000000000000000000000000000000000 PUSH0 MSTORE PUSH1 0x12 PUSH1 0x4 MSTORE PUSH1 0x24 PUSH0 REVERT JUMPDEST PUSH0 PUSH2 0x1152 DUP3 PUSH2 0xF90 JUMP JUMPDEST SWAP2 POP PUSH2 0x115D DUP4 PUSH2 0xF90 JUMP JUMPDEST SWAP3 POP DUP3 PUSH2 0x116D JUMPI PUSH2 0x116C PUSH2 0x111B JUMP JUMPDEST JUMPDEST DUP3 DUP3 DIV SWAP1 POP SWAP3 SWAP2 POP POP JUMP JUMPDEST PUSH0 DUP3 DUP3 MSTORE PUSH1 0x20 DUP3 ADD SWAP1 POP SWAP3 SWAP2 POP POP JUMP JUMPDEST PUSH32 0x496E76616C696420746F6B656E20616464726573730000000000000000000000 PUSH0 DUP3 ADD MSTORE POP JUMP JUMPDEST PUSH0 PUSH2 0x11BC PUSH1 0x15 DUP4 PUSH2 0x1178 JUMP JUMPDEST SWAP2 POP PUSH2 0x11C7 DUP3 PUSH2 0x1188 JUMP JUMPDEST PUSH1 0x20 DUP3 ADD SWAP1 POP SWAP2 SWAP1 POP JUMP JUMPDEST PUSH0 PUSH1 0x20 DUP3 ADD SWAP1 POP DUP2 DUP2 SUB PUSH0 DUP4 ADD MSTORE PUSH2 0x11E9 DUP2 PUSH2 0x11B0 JUMP JUMPDEST SWAP1 POP SWAP2 SWAP1 POP JUMP JUMPDEST PUSH32 0x496E70757420616D6F756E74206D757374206265206772656174657220746861 PUSH0 DUP3 ADD MSTORE PUSH32 0x6E20300000000000000000000000000000000000000000000000000000000000 PUSH1 0x20 DUP3 ADD MSTORE POP JUMP JUMPDEST PUSH0 PUSH2 0x124A PUSH1 0x23 DUP4 PUSH2 0x1178 JUMP JUMPDEST SWAP2 POP PUSH2 0x1255 DUP3 PUSH2 0x11F0 JUMP JUMPDEST PUSH1 0x40 DUP3 ADD SWAP1 POP SWAP2 SWAP1 POP JUMP JUMPDEST PUSH0 PUSH1 0x20 DUP3 ADD SWAP1 POP DUP2 DUP2 SUB PUSH0 DUP4 ADD MSTORE PUSH2 0x1277 DUP2 PUSH2 0x123E JUMP JUMPDEST SWAP1 POP SWAP2 SWAP1 POP JUMP JUMPDEST PUSH32 0x496E73756666696369656E74206F757470757420616D6F756E74000000000000 PUSH0 DUP3 ADD MSTORE POP JUMP JUMPDEST PUSH0 PUSH2 0x12B2 PUSH1 0x1A DUP4 PUSH2 0x1178 JUMP JUMPDEST SWAP2 POP PUSH2 0x12BD DUP3 PUSH2 0x127E JUMP JUMPDEST PUSH1 0x20 DUP3 ADD SWAP1 POP SWAP2 SWAP1 POP JUMP JUMPDEST PUSH0 PUSH1 0x20 DUP3 ADD SWAP1 POP DUP2 DUP2 SUB PUSH0 DUP4 ADD MSTORE PUSH2 0x12DF DUP2 PUSH2 0x12A6 JUMP JUMPDEST SWAP1 POP SWAP2 SWAP1 POP JUMP JUMPDEST PUSH0 PUSH2 0x12F0 DUP3 PUSH2 0xF90 JUMP JUMPDEST SWAP2 POP PUSH2 0x12FB DUP4 PUSH2 0xF90 JUMP JUMPDEST SWAP3 POP DUP3 DUP3 ADD SWAP1 POP DUP1 DUP3 GT ISZERO PUSH2 0x1313 JUMPI PUSH2 0x1312 PUSH2 0x10AD JUMP JUMPDEST JUMPDEST SWAP3 SWAP2 POP POP JUMP JUMPDEST PUSH0 PUSH2 0x1323 DUP3 PUSH2 0xF90 JUMP JUMPDEST SWAP2 POP PUSH2 0x132E DUP4 PUSH2 0xF90 JUMP JUMPDEST SWAP3 POP DUP3 DUP3 SUB SWAP1 POP DUP2 DUP2 GT ISZERO PUSH2 0x1346 JUMPI PUSH2 0x1345 PUSH2 0x10AD JUMP JUMPDEST JUMPDEST SWAP3 SWAP2 POP POP JUMP JUMPDEST PUSH0 PUSH1 0x60 DUP3 ADD SWAP1 POP PUSH2 0x135F PUSH0 DUP4 ADD DUP7 PUSH2 0xF68 JUMP JUMPDEST PUSH2 0x136C PUSH1 0x20 DUP4 ADD DUP6 PUSH2 0xF68 JUMP JUMPDEST PUSH2 0x1379 PUSH1 0x40 DUP4 ADD DUP5 PUSH2 0xF99 JUMP JUMPDEST SWAP5 SWAP4 POP POP POP POP JUMP JUMPDEST PUSH0 DUP2 ISZERO ISZERO SWAP1 POP SWAP2 SWAP1 POP JUMP JUMPDEST PUSH2 0x1395 DUP2 PUSH2 0x1381 JUMP JUMPDEST DUP2 EQ PUSH2 0x139F JUMPI PUSH0 DUP1 REVERT JUMPDEST POP JUMP JUMPDEST PUSH0 DUP2 MLOAD SWAP1 POP PUSH2 0x13B0 DUP2 PUSH2 0x138C JUMP JUMPDEST SWAP3 SWAP2 POP POP JUMP JUMPDEST PUSH0 PUSH1 0x20 DUP3 DUP5 SUB SLT ISZERO PUSH2 0x13CB JUMPI PUSH2 0x13CA PUSH2 0xFC1 JUMP JUMPDEST JUMPDEST PUSH0 PUSH2 0x13D8 DUP5 DUP3 DUP6 ADD PUSH2 0x13A2 JUMP JUMPDEST SWAP2 POP POP SWAP3 SWAP2 POP POP JUMP JUMPDEST PUSH0 PUSH1 0x40 DUP3 ADD SWAP1 POP PUSH2 0x13F4 PUSH0 DUP4 ADD DUP6 PUSH2 0xF68 JUMP JUMPDEST PUSH2 0x1401 PUSH1 0x20 DUP4 ADD DUP5 PUSH2 0xF99 JUMP JUMPDEST SWAP4 SWAP3 POP POP POP JUMP JUMPDEST PUSH0 PUSH1 0x40 DUP3 ADD SWAP1 POP PUSH2 0x141B PUSH0 DUP4 ADD DUP6 PUSH2 0xF99 JUMP JUMPDEST PUSH2 0x1428 PUSH1 0x20 DUP4 ADD DUP5 PUSH2 0xF99 JUMP JUMPDEST SWAP4 SWAP3 POP POP POP JUMP JUMPDEST PUSH32 0x4E6F742074686520636F6E7472616374206F776E657200000000000000000000 PUSH0 DUP3 ADD MSTORE POP JUMP JUMPDEST PUSH0 PUSH2 0x1463 PUSH1 0x16 DUP4 PUSH2 0x1178 JUMP JUMPDEST SWAP2 POP PUSH2 0x146E DUP3 PUSH2 0x142F JUMP JUMPDEST PUSH1 0x20 DUP3 ADD SWAP1 POP SWAP2 SWAP1 POP JUMP JUMPDEST PUSH0 PUSH1 0x20 DUP3 ADD SWAP1 POP DUP2 DUP2 SUB PUSH0 DUP4 ADD MSTORE PUSH2 0x1490 DUP2 PUSH2 0x1457 JUMP JUMPDEST SWAP1 POP SWAP2 SWAP1 POP JUMP JUMPDEST PUSH32 0x416D6F756E7473206D7573742062652067726561746572207468616E20300000 PUSH0 DUP3 ADD MSTORE POP JUMP JUMPDEST PUSH0 PUSH2 0x14CB PUSH1 0x1E DUP4 PUSH2 0x1178 JUMP JUMPDEST SWAP2 POP PUSH2 0x14D6 DUP3 PUSH2 0x1497 JUMP JUMPDEST PUSH1 0x20 DUP3 ADD SWAP1 POP SWAP2 SWAP1 POP JUMP JUMPDEST PUSH0 PUSH1 0x20 DUP3 ADD SWAP1 POP DUP2 DUP2 SUB PUSH0 DUP4 ADD MSTORE PUSH2 0x14F8 DUP2 PUSH2 0x14BF JUMP JUMPDEST SWAP1 POP SWAP2 SWAP1 POP JUMP JUMPDEST PUSH32 0x496E73756666696369656E74206C697175696469747900000000000000000000 PUSH0 DUP3 ADD MSTORE POP JUMP JUMPDEST PUSH0 PUSH2 0x1533 PUSH1 0x16 DUP4 PUSH2 0x1178 JUMP JUMPDEST SWAP2 POP PUSH2 0x153E DUP3 PUSH2 0x14FF JUMP JUMPDEST PUSH1 0x20 DUP3 ADD SWAP1 POP SWAP2 SWAP1 POP JUMP JUMPDEST PUSH0 PUSH1 0x20 DUP3 ADD SWAP1 POP DUP2 DUP2 SUB PUSH0 DUP4 ADD MSTORE PUSH2 0x1560 DUP2 PUSH2 0x1527 JUMP JUMPDEST SWAP1 POP SWAP2 SWAP1 POP JUMP JUMPDEST PUSH32 0x496E76616C696420726573657276657300000000000000000000000000000000 PUSH0 DUP3 ADD MSTORE POP JUMP JUMPDEST PUSH0 PUSH2 0x159B PUSH1 0x10 DUP4 PUSH2 0x1178 JUMP JUMPDEST SWAP2 POP PUSH2 0x15A6 DUP3 PUSH2 0x1567 JUMP JUMPDEST PUSH1 0x20 DUP3 ADD SWAP1 POP SWAP2 SWAP1 POP JUMP JUMPDEST PUSH0 PUSH1 0x20 DUP3 ADD SWAP1 POP DUP2 DUP2 SUB PUSH0 DUP4 ADD MSTORE PUSH2 0x15C8 DUP2 PUSH2 0x158F JUMP JUMPDEST SWAP1 POP SWAP2 SWAP1 POP JUMP INVALID LOG2 PUSH5 0x6970667358 0x22 SLT KECCAK256 0xE1 PUSH1 0xA6 0xAA SWAP4 0xC6 CREATE GASLIMIT SWAP12 COINBASE TLOAD CALLDATASIZE PUSH7 0xB8B26D24AC951F DELEGATECALL 0x23 SGT NOT SWAP2 0xBD CALL CALLER 0xD0 0xED SELFBALANCE STATICCALL PUSH5 0x736F6C6343 STOP ADDMOD BYTE STOP CALLER "
				},
				"gasEstimates": {
					"creation": {
						"codeDepositCost": "1127400",
						"executionCost": "infinite",
						"totalCost": "infinite"
					},
					"external": {
						"addLiquidity(uint256,uint256)": "infinite",
						"getPrice(address)": "infinite",
						"owner()": "2508",
						"removeLiquidity(uint256,uint256)": "infinite",
						"reserveA()": "2491",
						"reserveB()": "2448",
						"swapAforB(uint256)": "infinite",
						"swapBforA(uint256)": "infinite",
						"tokenA()": "2506",
						"tokenB()": "2575"
					},
					"internal": {
						"getAmountOut(uint256,uint256,uint256)": "infinite"
					}
				},
				"methodIdentifiers": {
					"addLiquidity(uint256,uint256)": "9cd441da",
					"getPrice(address)": "41976e09",
					"owner()": "8da5cb5b",
					"removeLiquidity(uint256,uint256)": "9d7de6b3",
					"reserveA()": "dc5fa6c5",
					"reserveB()": "19e36f3b",
					"swapAforB(uint256)": "e4f1f70a",
					"swapBforA(uint256)": "8014a7aa",
					"tokenA()": "0fc63d10",
					"tokenB()": "5f64b55b"
				}
			},
			"storageLayout": {
				"storage": [
					{
						"astId": 70,
						"contract": "contracts/simpleDEXProject/SimpleDEX.sol:SimpleDEX",
						"label": "tokenA",
						"offset": 0,
						"slot": "0",
						"type": "t_address"
					},
					{
						"astId": 72,
						"contract": "contracts/simpleDEXProject/SimpleDEX.sol:SimpleDEX",
						"label": "tokenB",
						"offset": 0,
						"slot": "1",
						"type": "t_address"
					},
					{
						"astId": 74,
						"contract": "contracts/simpleDEXProject/SimpleDEX.sol:SimpleDEX",
						"label": "reserveA",
						"offset": 0,
						"slot": "2",
						"type": "t_uint256"
					},
					{
						"astId": 76,
						"contract": "contracts/simpleDEXProject/SimpleDEX.sol:SimpleDEX",
						"label": "reserveB",
						"offset": 0,
						"slot": "3",
						"type": "t_uint256"
					},
					{
						"astId": 78,
						"contract": "contracts/simpleDEXProject/SimpleDEX.sol:SimpleDEX",
						"label": "owner",
						"offset": 0,
						"slot": "4",
						"type": "t_address"
					}
				],
				"types": {
					"t_address": {
						"encoding": "inplace",
						"label": "address",
						"numberOfBytes": "20"
					},
					"t_uint256": {
						"encoding": "inplace",
						"label": "uint256",
						"numberOfBytes": "32"
					}
				}
			},
			"userdoc": {
				"kind": "user",
				"methods": {},
				"version": 1
			}
		}
	}
}